:020000040800F2
:1000000000200020C1000008F102000805030008DC
:1000100000000000000000000000000000000000E0
:10002000000000000000000000000000F1020008D5
:100030000000000000000000F1020008F1020008CA
:10004000F1020008F1020008F1020008F1020008C4
:10005000F1020008F1020008F1020008F1020008B4
:10006000F1020008F1020008F1020008F1020008A4
:10007000F1020008F1020008F1020008F102000894
:10008000F1020008F1020008F1020008F102000884
:10009000F1020008F1020008F1020008F102000874
:1000A000F1020008F1020008F102000875050008DD
:1000B000F1020008F1020008F1020008F102000854
:1000C00000F0C0F800F084F8E1235B02180000F0B3
:1000D000ADF962B600F016F8024B180000F018FBFC
:1000E000FEE7C0468422000880B582B000AF786089
:1000F000C0467B685A1E7A60002BFAD1C046BD46C6
:1001000002B080BD90B583B000AF284B180001F05D
:100110004DF900F07FFB264B254A126880218902A9
:100120000A431A609023DB059022D2051268012150
:100130000A431A6000F0B8FB03007B607B681D4A2D
:100140005343002B02DA1C4A944663441B133B6062
:100150003B681A49180000F019FD03001C003B68B9
:100160001649180000F0F8FD0B00796814482200C9
:1001700001F0A0F8134B1B689B68180000F0A4FE68
:10018000114B114A126801210A431A600F4B1800E3
:10019000FFF7AAFF0C4B0C4A126801218A431A6030
:1001A0000A4B1800FFF7A0FFC4E7C046542200081E
:1001B0001410024010090500FF0F0000A086010086
:1001C0006C220008640000201400004820A10700F1
:1001D00080B582B000AF154B7B60154B3B6007E0EC
:1001E0003B681A1D3A607A68111D796012681A60BE
:1001F0003A68104B9A42F3D304E03B681A1D3A6008
:1002000000221A603A680C4B9A42F6D30B4B3B60C3
:1002100004E03B681A1D3A601B6898473A68084B2F
:100220009A42F6D3C046BD4602B080BD8423000882
:100230000000002068000020200100208423000826
:100240008423000880B500AF244B244A1268244957
:100250000A401A60C046214B1A6880239B04134051
:10026000F9D1204B1F4A126801210A431A601D4B25
:100270001C4A126806218A431A601A4B194A1268EE
:1002800010210A431A60184B174A126817490A408E
:100290001A60154B144A1268A02189030A431A6098
:1002A000114B114A12688021C9010A431A600B4B95
:1002B0000A4A1268802149040A431A60C046074B63
:1002C0001A6880239B041340F9D0074B064A126832
:1002D00002210A431A60C046BD4680BD001002409C
:1002E000FFFFFFFE0020024004100240FFFFC3FF9B
:1002F00080B500AF024B180000F00AFAFEE7C046D6
:100300009C22000880B500AF024B180000F000FAF4
:10031000FEE7C046C422000890B585B000AF786003
:100320003960184B1B68002B02D101235B4224E08B
:100330000023FB600AE0FB685A1CFA603A68D41894
:10034000114B180000F0B0F9030023707B68013BEB
:100350001A00FB689A4205D90B4B180000F0CEF941
:10036000031EE8D1FB68002B06D03A68FB68D3185F
:1003700000221A70FB6800E000231800BD4605B09B
:1003800090BDC046140100207C00002090B585B0CF
:1003900000AF78603960214B1B68002B02D101232C
:1003A0005B4237E07B683F2B0BDCC0461C4B1800E0
:1003B00000F0A4F9020040239A1A7B689A42F5D310
:1003C00002E002235B4225E00023FB600BE03A6879
:1003D000FB68D3181A78124B1100180000F034F99A
:1003E000FB680133FB607B68FA689A42EFD30D4BE0
:1003F0001B68082213400CD10A4B0A4A12680821D4
:100400000A431A60084C064B180000F04DF903002F
:10041000236000231800BD4605B090BD14010020E4
:10042000C8000020003801402838014080B584B061
:1004300000AF786072B63F4B00229A643D4B9A6CD5
:100440003C4B5A643B4B5A6C3A4B1A643A4B002271
:100450009A64394B9A6C384B5A64374B5A6C364B0A
:100460001A64364B01221A60354B00221A60354B54
:10047000344A1268802189020A431A60324BFB60B9
:100480007968F86800F082FB0300FB602F4B2F4A6D
:1004900012688021C9020A431A602D4B2C4A126847
:1004A0002C490A401A609023DB059022D20512687D
:1004B000802109030A431A60274B274A126810213A
:1004C0000A431A609023DB059022D205126880212E
:1004D00089030A431A60204B1F4A12688021490091
:1004E0000A431A601D4B1D4A12688021C9010A4344
:1004F0001A601B4B1A4A12686C210A431A60194B86
:1005000000221A60184B00221A60184BFA681A6011
:10051000134B134A126801210A431A60144B144A00
:100520001268802109050A431A6062B6C046BD46BA
:1005300004B080BD7C000020C80000201401002011
:100540007800002014100240006CDC020800004813
:1005500004000048FFFDFFFF24000048181002407F
:100560000038014004380140083801400C3801408F
:1005700000E100E080B500AF084B1B68802213400B
:1005800001D000F025F8054B1B682022134001D054
:1005900000F006F8C046BD4680BDC0461C3801408C
:1005A00080B500AF074B1B68DAB2074B110018008B
:1005B00000F04AF8031E02D0044B01221A60C04624
:1005C000BD4680BD243801407C000020780000201A
:1005D000B0B500AF164B180000F090F8031E07D01E
:1005E000144C134B180000F05FF8030023601BE06D
:1005F000114B114A126808218A431A600F4B1B687D
:100600004022134005D00E4B0D4A126840210A4388
:100610001A600A4B1B688022134005D0094B094A17
:10062000126810210A431A60C046BD46B0BDC046DC
:10063000C800002028380140003801401C38014023
:10064000203801401838014080B582B000AF786092
:100650000A00FB1C1A707B681A6C7B685B6C9A4200
:1006600005D17B689B6C002B01D0012317E072B68B
:100670007B681B6C591C7A6811647A68F91C0978CC
:10068000D1547B689B6C5A1C7B689A647B681B6C9A
:10069000402B02D17B6800221A6462B60023180046
:1006A000BD4602B080BDC04680B584B000AF786062
:1006B0007B689B6C002B01D100231AE072B67B682B
:1006C0005B6C591C7A6851640F22BA187968CB5C4C
:1006D00013707B685B6C402B02D17B6800225A64EC
:1006E0007B689B6C5A1E7B689A6462B60F23FB186A
:1006F0001B781800BD4604B080BDC04680B582B0EE
:1007000000AF78607B689B6C1800BD4602B080BD6E
:1007100080B582B000AF78600B4B1B68002B09D10D
:1007200001235B420BE07B685A1C7A6019000120B0
:10073000FFF72CFE7B681B78002BF4D100231800F8
:10074000BD4602B080BDC0461401002080B582B015
:1007500000AF0200FB1D1A70FB1D19000120FFF7FE
:1007600015FEC046BD4602B080BDC04680B500AF94
:10077000034B1800FFF798FF03001800BD4680BD2B
:100780007C00002090B585B000AF786039601F4BC9
:100790001B68002B02D101235B4232E00023FB6087
:1007A0000B23FB1800221A7018E0C046184B1800E3
:1007B000FFF7A4FF031EF9D00B23FC18144B1800FD
:1007C000FFF772FF03002370FB685A1CFA601A00DF
:1007D0007B689B180B22BA1812781A703B685A1E55
:1007E000FB689A4204DD0B23FB181B780D2BDCD130
:1007F000FB68002B04DDFB687A68D31800221A70AE
:10080000FB681800BD4605B090BDC046140100202D
:100810007C00002080B500AF1C4B1C4A1268802170
:10082000C9020A431A601A4B194A126880218900CA
:100830000A431A60174B174A12680C210A431A60C0
:10084000154B154A1268802109060A431A60C046F2
:10085000114B1B68002BFBDB104B07221A60104B5F
:100860000F4A1268802189000A431A600D4B0D4A15
:1008700012688021C9030A431A60074B064A1268AE
:1008800001210A431A60C046BD4680BD14100240D3
:1008900018100240000400480824014014240140BC
:1008A000282401400827014080B500AF084B084AC2
:1008B000126804210A431A60C046054B1B680422D3
:1008C0001340FAD1034B1B681800BD4680BDC046DB
:1008D000082401404024014080B582B000AF786018
:1008E000FEE7C04680B582B000AF786001235B426E
:1008F0001800BD4602B080BD80B584B000AFF8607E
:10090000B9607A60044B0C221A6001235B42180024
:10091000BD4604B080BDC0461C01002080B500AFBC
:10092000034B0B221A6001235B421800BD4680BDB9
:100930001C01002080B582B000AF786039603B6850
:10094000802292015A6000231800BD4602B080BD8B
:1009500080B500AF01231800BD4680BD80B582B0D0
:1009600000AF78603960044B16221A6001235B42A5
:100970001800BD4602B080BD1C01002080B582B0C9
:1009800000AF78603960044B1F221A6001235B427C
:100990001800BD4602B080BD1C01002080B584B0A7
:1009A00000AFF860B9607A6000231800BD4604B05B
:1009B00080BDC04680B582B000AF786039603B68CA
:1009C000802292015A6000231800BD4602B080BD0B
:1009D00080B582B000AF786001235B421800BD464D
:1009E00002B080BD80B582B000AF7860044B0222B7
:1009F0001A6001235B421800BD4602B080BDC046AC
:100A00001C01002080B582B000AF7860044B0A2240
:100A10001A6001235B421800BD4602B080BDC0468B
:100A20001C01002080B582B000AF78607B68003385
:100A3000022B01D8012303E0034B09221A60002393
:100A40001800BD4602B080BD1C01002080B586B0F4
:100A500000AF7860144B7B61144B154A9446634495
:100A60003B61144B1B68002B02D1124B7A691A6050
:100A7000104B1B68FB600F4B1A687B68D2183B69F0
:100A80009A4205D90C4B0C221A6001235B4206E006
:100A9000084B1A687B68D218064B1A60FB6818006E
:100AA000BD4606B080BDC0462001002000200020C9
:100AB00000F0FFFF6C0000201C01002080B588B012
:100AC00000AFF860B9607A600023BB61FB68002B5F
:100AD00024D10023FB611CE0FFF748FE03001A004D
:100AE0001723FB181A70BB685A1CBA601722BA1871
:100AF0001278D2B21A70BB690133BB611723FB189D
:100B00001B78DBB20A2B01D1BB690EE0FB69013314
:100B1000FB61FA697B689A42DEDB05E0054B09223E
:100B20001A6001235B4200E0BB691800BD4608B0B3
:100B300080BDC0461C01002080B586B000AFF860C3
:100B4000B9607A60FB68013B012B11D800237B61FF
:100B500009E0BB685A1CBA601B781800FFF7F6FD65
:100B60007B6901337B617A697B689A42F1DB05E03E
:100B7000054B09221A6001235B4200E07B681800E4
:100B8000BD4606B080BDC0461C01002003460B4395
:100B90007FD4002243088B4274D303098B425FD376
:100BA000030A8B4244D3030B8B4228D3030C8B42A2
:100BB0000DD3FF22090212BA030C8B4202D3121288
:100BC000090265D0030B8B4219D300E0090AC30B5D
:100BD0008B4201D3CB03C01A5241830B8B4201D30A
:100BE0008B03C01A5241430B8B4201D34B03C01AF3
:100BF0005241030B8B4201D30B03C01A5241C30A6B
:100C00008B4201D3CB02C01A5241830A8B4201D3DB
:100C10008B02C01A5241430A8B4201D34B02C01AC5
:100C20005241030A8B4201D30B02C01A5241CDD26A
:100C3000C3098B4201D3CB01C01A524183098B42B5
:100C400001D38B01C01A524143098B4201D34B019E
:100C5000C01A524103098B4201D30B01C01A524101
:100C6000C3088B4201D3CB00C01A524183088B4288
:100C700001D38B00C01A524143088B4201D34B0071
:100C8000C01A5241411A00D20146524110467047E3
:100C90005DE0CA0F00D04942031000D340425340E8
:100CA00000229C4603098B422DD3030A8B4212D3A8
:100CB000FC22890112BA030A8B420CD389019211DA
:100CC0008B4208D3890192118B4204D389013AD017
:100CD000921100E08909C3098B4201D3CB01C01AEC
:100CE000524183098B4201D38B01C01A52414309FF
:100CF0008B4201D34B01C01A524103098B4201D3ED
:100D00000B01C01A5241C3088B4201D3CB00C01A59
:100D1000524183088B4201D38B00C01A5241D9D271
:100D200043088B4201D34B00C01A5241411A00D2F2
:100D30000146634652415B10104601D34042002BEE
:100D400000D54942704763465B1000D3404201B56D
:100D5000002000F005F802BD0029F8D016E7704722
:100D60007047C046F7B58A8905000C0013075AD4AE
:100D70004B68002B02DC0B6C002B19DDE76A002F9F
:100D800016D000232E682B6080235B011A4001D00F
:100D9000606D14E00123216A2800B847431C0ED17E
:100DA0002B68002B0BD01D2B01D0162B02D12E60EF
:100DB00000205AE04022A3891343A38155E0A38970
:100DC0005B0706D56368C01A636B002B01D0236CE8
:100DD000C01A00230200216A2800E76AB847A389E5
:100DE000421C06D129681D293AD8204ACA40D20798
:100DF00036D50022626022692260DB0405D5431CDF
:100E000002D12B68002B00D16065616B2E60002938
:100E1000CED023004433994202D0280000F08AF952
:100E20000020606321E00F69002FC1D00B680F60C4
:100E3000DB1B01930023920700D14B69A36003E001
:100E4000019B3F181B1A0193019B002BB0DD019BF6
:100E50003A00216A2800A66AB0470028F0DCA3897E
:100E6000402201201343A3814042FEBD01004020E7
:100E70000B6970B505000C00002B01D100201CE0AF
:100E8000002804D08369002B01D100F07FF80B4BC0
:100E90009C4201D16C6808E0094B9C4201D1AC68CE
:100EA00003E0084B9C4200D1EC680C22A35E002BAF
:100EB000E4D021002800FFF755FF70BDE8220008AC
:100EC000082300082823000810B5011E05D1054B92
:100ED0000549186800F004F903E0044B1868FFF7AF
:100EE000C7FF10BD4C230008710E000864000020ED
:100EF0000020704710B5024900F0F2F810BDC0465E
:100F0000710E0008002310B5040003604360836085
:100F100081814366C28103614361836119000822B4
:100F20005C3000F0FEF8054B24626362044BA36260
:100F3000044BE362044B236310BDC046E513000875
:100F400011140008491400087514000800207047A7
:100F500070B568254B1E5D430E002900743100F00A
:100F600035F9041E08D000212A00016046600C30CB
:100F7000A060683200F0D5F8200070BD10B5024BBB
:100F80001868FFF7B7FF10BD4C230008836913B53D
:100F90000400002B28D18364C3640365134B144AF7
:100FA0001B6882620193984201D101238361200072
:100FB00000F020F86060200000F01CF8A060200025
:100FC00000F018F80022E06004216068FFF79AFF43
:100FD00001220921A068FFF795FF02221221E06893
:100FE000FFF790FF0123A36113BDC0464C23000807
:100FF000F50E0008F8B51D4B06001D68AB69002B07
:1010000002D12800FFF7C2FF4835AC686B68013B8E
:1010100005D40C22A75E002F10D06834F7E72B68A8
:10102000002B01D02D68F0E704213000FFF790FF7E
:1010300028600028F6D10C23336016E0012320003D
:101040005B42E3810233A38167662760A760676024
:1010500027616761A7615C300822390000F061F800
:1010600020006763A763A764E764F8BD4C2300080A
:10107000704770477047704710B5034B03491868B5
:1010800000F012F810BDC046640000204D0F0008AB
:1010900010B5034B0349186800F006F810BDC046B0
:1010A00064000020F10E0008F7B548300400002667
:1010B0000191002C12D0A5686768013F0CD4AB8960
:1010C000012B07D90E22AB5E013303D02800019B10
:1010D000984706436835F0E72468EAE73000FEBD2C
:1010E000F7B504000700002601914834002C16D003
:1010F0006368A5680093009B013B00930DD4AB8906
:10110000012B08D90E22AB5E013304D02900380030
:10111000019B984706436835EDE72468E6E7300011
:10112000FEBD03008218934202D019700133FAE722
:101130007047000070B50500002944D00C1F2368DB
:10114000002B00DAE418280000F010FB1E4A136898
:101150001100002B02D16360146031E0A3420DD96D
:101160002268A018834203D118685B688218226045
:1011700063600C6024E0A24203D813005A68002A7E
:10118000F9D11E689819A0420BD12168711858181E
:101190001960824214D110685268411819605A606F
:1011A0000EE0A04202D90C232B6009E021686018F0
:1011B000824203D1106852684118216062605C600D
:1011C000280000F0D4FA70BD74000020032370B52D
:1011D000CD1C9D43083506000C2D01D20C2501E0E5
:1011E000002D01DBA94202D90C23336048E0300016
:1011F00000F0BCFA234B1C681A002100002913D010
:101200000B685B1B0DD40B2B02D90B60CC181EE0B6
:101210008C4202D1636813601AE04B6863600C0073
:1012200016E00C004968E9E7174C2368002B03D14E
:10123000300000F0C5F820602900300000F0C0F850
:10124000431C18D00323C41C9C43A0420DD125602D
:10125000300000F08CFA200007220B30231D904351
:10126000C31A0ED05A42E2500BE0211A300000F0AF
:10127000A7F8431CEBD10C233000336000F077FA61
:10128000002070BD74000020700000200EB417B55F
:10129000041E04D08369002B01D1FFF777FE06AB53
:1012A000059AA1682000019300F098FA1EBC08BCC2
:1012B00003B018470FB40B4B13B51C68002C05D0B6
:1012C000A369002B02D12000FFF760FE05AB049A52
:1012D000A1682000019300F081FA16BC08BC04B09C
:1012E0001847C0466400002070B505000E000028B5
:1012F00004D08369002B01D1FFF748FEAB69AC68CD
:10130000002B02D12800FFF741FE254B9C4201D162
:101310006C6808E0234B9C4201D1AC6803E0224B8F
:101320009C4200D1EC68A3891B0702D52369002BDE
:1013300011D12100280000F019F900280BD001205C
:1013400040422BE0013B0136A360002B08DB236801
:101350005A1C226019703178A3680029F2D10BE081
:10136000A269934201DB0A29F1D12200280000F092
:1013700087F8431CEFD1E2E7013BA360002B08DABA
:1013800022000A31280000F07BF8431CD7D00A2045
:1013900004E00A2023685A1C2260187070BDC04601
:1013A000E8220008082300082823000810B5034B92
:1013B00001001868FFF798FF10BDC04664000020C8
:1013C000002370B5064C050008002360FFF73EFBC4
:1013D000431C03D12368002B00D02B6070BDC04696
:1013E0001C01002070B50C000E25495F00F0AEFC1A
:1013F000002803DB636D1B18636503E0A289024BC1
:101400001340A38170BDC046FFEFFFFF002070476F
:10141000F8B51F008B8905000C001600DB0505D50B
:101420000E23C95E0022022300F028F9A289054B91
:1014300028001340A38132000E23E15E3B0000F040
:1014400081F8F8BDFFEFFFFF70B50C000E25495F76
:1014500000F014F9A389421C03D1054A1340A3816B
:1014600004E0802252011343A381606570BDC04631
:10147000FFEFFFFF10B50E23C95E00F0EDF810BDC1
:10148000F8B505000F001400002804D08369002B74
:1014900001D1FFF77BFD234B9C4201D16C6808E032
:1014A000214B9C4201D1AC6803E0204B9C4200D10F
:1014B000EC68A369A360A3891B070AD52369002BE5
:1014C00007D023682269FEB2981A636998420FDB3D
:1014D00008E02100280000F049F80028F1D00120A0
:1014E00040421DE021002800FFF7C2FC0028F6D191
:1014F000A3680130013BA36023685A1C22601F705F
:101500006369984205D0A3893000DB0708D50A2E0D
:1015100006D121002800FFF7ABFC0028DFD1300006
:10152000F8BDC046E8220008082300082823000868
:1015300010B5034B0A0001001868FFF7A1FF10BDAA
:101540006400002070B50500080011000022064C60
:1015500022601A00FFF7F0FA431C03D12368002B26
:1015600000D02B6070BDC0461C010020364B70B50A
:101570001D6806000C00002D05D0AB69002B02D1C0
:101580002800FFF703FD314B9C4201D16C6808E055
:101590002F4B9C4201D1AC6803E02E4B9C4200D102
:1015A000EC680C22A35E9AB2110723D4D10607D4AB
:1015B00009220120326037321343A381404242E0C6
:1015C000530713D5616B002908D023004433994297
:1015D00002D03000FFF7AEFD002363632422A3890D
:1015E0009343A38100236360236923600822A389B6
:1015F0001343A3812369002B0BD1A0238022A1894F
:101600009B0092000B40934203D02100300000F079
:101610006FF80123A289134005D00023A3606369FA
:101620005B42A36103E0920700D46369A3600020DA
:101630002369834207D10C22A35E1A0603D54022F8
:101640001343A381013870BD64000020E822000824
:101650000823000828230008002370B5064C050065
:1016600008002360FFF73EF9431C03D12368002BD9
:1016700000D02B6070BDC0461C01002070B5050075
:10168000080011000022064C22601A00FFF786F9BC
:10169000431C03D12368002B00D02B6070BDC046D3
:1016A0001C01002070B50E001D000E23C95E90B015
:1016B0001400002906DA00232B60B3891B060FD51E
:1016C00040230FE001AA00F055FB0028F3DBF023D4
:1016D000029A1B021340054A9B185A4253412B6041
:1016E0008023DB000020236010B070BD00E0FFFF0E
:1016F000F7B502268B8905000C00334210D101ABEF
:101700006A46FFF7CFFF009907002800FFF75EFD4C
:1017100000280CD10C22A35E9A0523D43343A38165
:101720002300473323602361012363611AE0802291
:101730000D4BAB62A38920601343A381009B206102
:101740006361019B002B0AD00E23E15E280000F0AC
:101750008BFC002803D00122A3891343A381A38912
:101760001F43A781F7BDC046F50E000870477047BC
:10177000936810B5013B9360002B05DA9469A3428E
:1017800008DBCBB20A2B05D01368581C1060197007
:10179000C8B201E0FFF774FE10BDF8B506000F00F7
:1017A0001400D518AC4208D021783A003000FFF779
:1017B000DFFF0134431CF5D100E00020F8BD936841
:1017C00010B51400002B02D15360180004E000F0A3
:1017D000E3FA0023A360636010BD0000F0B59FB082
:1017E00006000F0002920593002804D08369002BA5
:1017F00001D1FFF7CBFB7F4B9F4201D1776808E017
:101800007D4B9F4201D1B76803E07C4B9F4200D1E2
:10181000F768BB891B070AD53B69002B07D000235B
:1018200006AD6B6120336B761033AB763DE039004B
:101830003000FFF79BFE0028F1D001204042D6E0A7
:10184000059A111D12680591002A00DA7FE00992BD
:10185000013423782E2B00D18DE0217803226848B3
:1018600000F014FC002807D0654B2A68C01A4023FA
:10187000834013432B6001342178631C06226148A6
:101880000293297600F002FC002800D19DE05E4B17
:10189000002B00D090E00722059B073393430833C9
:1018A00005936B69039A9B186B61029C2378002B4C
:1018B00004D1029BE31A049312D003E0252BF8D045
:1018C0000134F3E7049B029A39003000FFF765FF0B
:1018D000431C00D186E06A69049B944663446B61B3
:1018E0002378002B7ED00122002352426A6002A995
:1018F0005432521801342B60EB60AB601370AB654F
:1019000021780522414800F0C1FB002808D03F4B58
:101910002A68C01A0123834013432B600134EFE788
:101920002B68DA0604D55322202102A81218117060
:101930001A0704D553222B2102A8121811702278FD
:101940002A2A00D17CE7099B00200A2105E05242A7
:10195000EA60022213432B607AE72278303A092AA0
:1019600004D84B4301349B180120F6E7002800D12E
:101970006FE709936DE763782A2B0AD1059B023440
:101980001A1D1B680592002B01DA01235B420793A5
:1019900063E700230A201A0001346B602178303994
:1019A000092904D84243013452180123F6E7002BD9
:1019B00000D152E7079250E705AB00933A00144B71
:1019C0002900300000E000BF07E005AB00933A00BB
:1019D0000F4B2900300000F097F80390039B013370
:1019E00000D05EE7BB895B0600D526E70B981FB0E9
:1019F000F0BDC046E822000808230008282300089C
:101A0000562300085A230008000000005023000855
:101A10009B17000810B513000A0001000248006877
:101A2000FFF7DCFE10BDC04664000020F7B51700CC
:101A300001938A680B6900900C00934200DA13004E
:101A400022003B6043321278002A01D001333B6010
:101A500023689B0602D53B6802333B60062523685A
:101A60001D401ED0230043331B785A1E9341226829
:101A700092061CD53020E1184331087021005A1C11
:101A800045310978A2184332023311700FE0220069
:101A90000123193201990098089EB047431C0ED0CB
:101AA0000135E3683A689B1A9D42F0DBDAE72200D1
:101AB000019943320098089DA847431C02D1012098
:101AC000404220E006232068E1683A680340002590
:101AD000042B03D18D1AEB43DB171D40A368226949
:101AE000934201DD9B1AED180027BD420AD0220067
:101AF00001231A3201990098089EB047431CDED09A
:101B00000137F2E70020FEBDF0B58BB006920A0067
:101B100043320793059004920A7E0C00109B6E2AB4
:101B200000D1ABE011D8632A22D009D8002A00D115
:101B3000B5E0582A00D0C5E045310A70814A4FE02F
:101B4000642A1DD0692A1BD0BCE0732A00D1AAE008
:101B500009D86F2A29D0702A00D0B3E02022096862
:101B60000A43226037E0752A1FD0782A33D0A9E0D3
:101B70000E001A684236111D196013683370A4E014
:101B800021681A68080606D4490604D5111D196093
:101B90000023D55E02E0111D19601568002D3BDAA7
:101BA0002D23049A6D42137036E021681A680806E6
:101BB00006D4490604D51568111D1960ADB202E0BE
:101BC000111D196015685F4B227E039308276F2A49
:101BD0001DD00A271BE022007821453211705A4A95
:101BE00019680392081D226818600D68100602D457
:101BF000500600D5ADB2D30702D520231A43226088
:101C00001027002D03D1202322689A43226023004D
:101C1000002243331A7002E00A274A4B0393636899
:101C2000A360002B09DB0422216891432160002D71
:101C300005D1049E002B11D07BE0002D79D0049EAD
:101C40002800390000F002FB039B013E5B5C28008A
:101C50003370390000F074FA051EF1D1082F09D154
:101C60002368DB0706D563682269934202DC3023D0
:101C7000013E3370049B9B1B23612BE009681A68AB
:101C8000080607D4490605D5111D19601368A28AF4
:101C90001A8004E0111D1960136862691A6000233C
:101CA000049E236116E01A68111D19601668002150
:101CB0006268300000F0EAF9002801D0801B606003
:101CC000636803E02600423632700123236100235B
:101CD000049A1370079B09AA00932100069B05989C
:101CE000FFF7A4FE431C02D10120404227E02369F4
:101CF000320006990598079DA847431CF4D0236835
:101D000000259B070FD4099BE068984217DA18005A
:101D100015E022000123193206990598079EB04765
:101D2000431CE1D00135E368099A9B1A9D42F0DB20
:101D3000E9E72600039B42361B7833708EE70BB031
:101D4000F0BDC046612300087223000870B505008D
:101D5000080011000022064C22601A00FEF7AEFEB9
:101D6000431C03D12368002B00D02B6070BDC046FC
:101D70001C010020002370B5064C0500080011006E
:101D80002360FEF7D7FD431C03D12368002B00D04E
:101D90002B6070BD1C010020F0B5936887B00290E5
:101DA0000C001700002B01D1002054E18B891B0788
:101DB0000CD50B69002B09D002253B68A289019341
:101DC000154029D0002300931D001BE0210002983C
:101DD000FFF7CCFB0028EFD03BE1A04A2B00954257
:101DE00000D91300009A216A0298A66AB047002819
:101DF00000DC2AE1009B2D1A1B180093BB68181AFF
:101E0000B860D1D0002DE8D1019B1B680093019BE5
:101E10005D6808330193F5E70123134003D005956E
:101E200000950395D2E003930093009B002B09D10A
:101E3000019B1B680393019B5B680093019B083324
:101E40000193F2E78023A2899B00A5681A4255D02E
:101E5000009BAB4244D39023DB001A423DD00326C3
:101E60002169236800985B1A049363695E43F30F4A
:101E70009E19049B761001331B18B34200D91E0033
:101E8000530510D531000298FFF7A0F9051E18D0B0
:101E9000049A216900F005F9A289714B1340802250
:101EA0001343A38111E03200029800F018F9051ED7
:101EB0000BD121690298FFF73DF98022A389934352
:101EC000A3810C23029A1360BFE0049B2561ED18E7
:101ED00025606661009DF61AA660009BAB4200D2A9
:101EE000009D2A000399206800F0E4F8A3685B1BBA
:101EF000A36023685D192560009D2FE02068236999
:101F0000984203D86669009BB34216D2009B9D425B
:101F100000D91D002A00039900F0CCF8A3682268BC
:101F20005B1B5219A3602260002B17D1210002987D
:101F3000FEF79EFF002811D087E00098494B984299
:101F400000D918003100FEF721FE3300A56A434393
:101F5000039A216A0298A847051E76DD039B5B1948
:101F60000393009B5B1B0093BB685D1BBD6000D0AF
:101F70005BE719E7059B002B37D0039B04959D4237
:101F800000D9049320682269636990423DD9A26810
:101F90009E18049AB24238DD0099320000F08AF8A7
:101FA000236821009B1923600298FEF761FF002837
:101FB0004BD1AD1B41D0009B9B190093039B9B1BF6
:101FC0000393BB689E1BBE6000D1EDE6039B002B14
:101FD000D0D1019B1B680093019B5B680393019B1D
:101FE0000833019300230593F0E7039A0A21009830
:101FF00000F04CF8002803D0009B0130C51A01E026
:10200000039B5D1C01230593B7E7049A9A4207DB03
:10201000A66A009A216A0298B047061EC9DC14E03D
:10202000049A009900F046F8049AA36816009B1AD7
:10203000A36023689B182360BBE721000298FEF78A
:1020400017FF002801D10595B5E74022A389134366
:10205000A3810120404207B0F0BDC04600FCFF7FD5
:102060007FFBFFFFFFFFFF7F002370B5064C0500DD
:1020700008002360FEF7D6FC431C03D12368002B25
:1020800000D02B6070BDC0461C010020C9B2821870
:10209000904204D003788B4202D00130F8E7002050
:1020A0007047002310B59A4203D0CC5CC45401336E
:1020B000F9E710BD10B5884202D98B18984201D3B8
:1020C000002305E09B1A013A08D3995C8154FAE792
:1020D000934203D0CC5CC4540133F9E710BDF8B58A
:1020E00006000C001500002904D11100FFF76EF85E
:1020F000040018E0002A03D1FFF71CF82C0012E0BE
:1021000000F013F885420ED929003000FFF75EF881
:10211000071E07D021002A00FFF7C3FF210030006F
:10212000FFF708F83C002000F8BD0B1F1A68101FCD
:10213000002A04DA891804390B68D018043870476B
:10214000002243088B4274D303098B425FD3030AF6
:102150008B4244D3030B8B4228D3030C8B420DD309
:10216000FF22090212BA030C8B4202D31212090297
:1021700065D0030B8B4219D300E0090AC30B8B42D5
:1021800001D3CB03C01A5241830B8B4201D38B0383
:10219000C01A5241430B8B4201D34B03C01A524128
:1021A000030B8B4201D30B03C01A5241C30A8B426B
:1021B00001D3CB02C01A5241830A8B4201D38B0256
:1021C000C01A5241430A8B4201D34B02C01A5241FA
:1021D000030A8B4201D30B02C01A5241CDD2C3096C
:1021E0008B4201D3CB01C01A524183098B4201D3E8
:1021F0008B01C01A524143098B4201D34B01C01AD3
:10220000524103098B4201D30B01C01A5241C3084A
:102210008B4201D3CB00C01A524183088B4201D3B9
:102220008B00C01A524143088B4201D34B00C01AA5
:102230005241411A00D20146524110467047FFE711
:1022400001B50020FEF78CFD02BDC0460029F7D085
:1022500076E770474144432F53455249414C2F4341
:102260004C4F434B20746573742E0D004144435B07
:10227000395D3D30782530347820563D25642E2553
:1022800064560D0052657475726E65642066726FD7
:102290006D206D61696E282900000000496E74652B
:1022A000727275707420776974686F757420495301
:1022B000522E202053797374656D2073746F702EC5
:1022C0000000000048617264204661756C742069EA
:1022D0006E746572727570742E20205379737465F4
:1022E0006D2073746F702E0000000000000000006D
:1022F00000000000000000000000000000000000DE
:1023000000000000000000000000000000000000CD
:1023100000000000000000000000000000000000BD
:1023200000000000000000000000000000000000AD
:10233000000000000000000000000000000000009D
:102340000000000000000000430000000400002026
:10235000232D302B2000686C4C006566674546478E
:102360000030313233343536373839414243444511
:102370004600303132333435363738396162636480
:04238000656600008E
:102384006800002000000000E8220008082300087C
:1023940028230008000000000000000000000000E6
:1023A40000000000482300080000000000000000B6
:1023B4000000000000000000000000000000000019
:1023C4000000000000000000000000000000000009
:1023D40000000000000000000000000000000000F9
:0823E4000000000004000020CD
:04000005080000C12E
:00000001FF
