:020000040800F2
:1000000000200020C1000008A1030008B50300087B
:1000100000000000000000000000000000000000E0
:10002000000000000000000000000000A103000824
:100030000000000000000000A1030008A103000868
:10004000A1030008A1030008A1030008A103000800
:10005000A1030008A1030008A1030008A1030008F0
:10006000A1030008A1030008A1030008A1030008E0
:10007000A1030008A1030008A1030008A1030008D0
:10008000A1030008A1030008A1030008A1030008C0
:10009000A1030008A1030008A1030008A1030008B0
:1000A000A1030008A1030008A10300082506000819
:1000B000A1030008A1030008A1030008A103000890
:1000C00000F018F900F0DCF8E1235B02180000F002
:1000D00005FA62B600F064F8024B180000F070FBFD
:1000E000FEE7C046600E000880B582B000AF7860C1
:1000F000C0467B685A1E7A60002BFAD1C046BD46C6
:1001000002B080BD90B58DB000AFF860B9607A6084
:100110001823FB18214A13CA13C3116819601279F6
:100120001A711023FB1800221A710323FB621BE0D3
:10013000FC6A631EFB62FB68B968180000F064FE8D
:100140000B001A001823FB189A5C1023FB181A5591
:10015000B968F86800F072FD0300FB607B68002B53
:1001600002D07B68013B7B60FB68DA17D31ADB0F98
:10017000DAB27B68D917CB1ADB0FDBB21343DBB2E1
:10018000002BD5D1FB6A01331022BA18D3181800FE
:1001900000F016FBC046BD460DB090BD140E000821
:1001A00080B582B000AF2C4B180000F009FB00F0C6
:1001B00089FB2A4B294A1268802189020A431A6066
:1001C0009023DB059022D205126801210A431A60B0
:1001D00000F0C2FB03007B607B68214A5343002B85
:1001E00002DA204A944663441B133B601E4B1800FE
:1001F00000F0E6FA7B68042210211800FFF782FF66
:100200001A4B180000F0DCFA3B681949180000F09E
:1002100015FD030001220A211800FFF773FF2E20AD
:1002200000F0ECFA3B681249180000F0EDFD0B00FD
:1002300004220A211800FFF765FF0E4B180000F09A
:10024000BFFA0D4B0C4A126801214A401A600B4B51
:100250001800FFF749FFBBE7280E00081410024002
:10026000E8800000FF0F0000440E0008500E000858
:1002700010270000540E00081400004820A10700B9
:1002800080B582B000AF154B7B60154B3B6007E03B
:100290003B681A1D3A607A68111D796012681A600D
:1002A0003A68104B9A42F3D304E03B681A1D3A6057
:1002B00000221A603A680C4B9A42F6D30B4B3B6013
:1002C00004E03B681A1D3A601B6898473A68084B7F
:1002D0009A42F6D3C046BD4602B080BDC40E0008A7
:1002E0000000002004000020B4000020C40E00081C
:1002F000C40E000880B500AF244B244A126824497C
:100300000A401A60C046214B1A6880239B041340A0
:10031000F9D1204B1F4A126801210A431A601D4B74
:100320001C4A126806218A431A601A4B194A12683D
:1003300010210A431A60184B174A126817490A40DD
:100340001A60154B144A1268A02189030A431A60E7
:10035000114B114A12688021C9010A431A600B4BE4
:100360000A4A1268802149040A431A60C046074BB2
:100370001A6880239B041340F9D0074B064A126881
:1003800002210A431A60C046BD4680BD00100240EB
:10039000FFFFFFFE0020024004100240FFFFC3FFEA
:1003A00080B500AF024B180000F00AFAFEE7C04625
:1003B000780E000880B500AF024B180000F000FA7C
:1003C000FEE7C046A00E000890B585B000AF78608B
:1003D0003960184B1B68002B02D101235B4224E0DB
:1003E0000023FB600AE0FB685A1CFA603A68D418E4
:1003F000114B180000F0B0F9030023707B68013B3B
:100400001A00FB689A4205D90B4B180000F0CEF990
:10041000031EE8D1FB68002B06D03A68FB68D318AE
:1004200000221A70FB6800E000231800BD4605B0EA
:1004300090BDC046A80000201000002090B585B0F7
:1004400000AF78603960214B1B68002B02D101237B
:100450005B4237E07B683F2B0BDCC0461C4B18002F
:1004600000F0A4F9020040239A1A7B689A42F5D35F
:1004700002E002235B4225E00023FB600BE03A68C8
:10048000FB68D3181A78124B1100180000F034F9E9
:10049000FB680133FB607B68FA689A42EFD30D4B2F
:1004A0001B68082213400CD10A4B0A4A1268082123
:1004B0000A431A60084C064B180000F04DF903007F
:1004C000236000231800BD4605B090BDA8000020A1
:1004D0005C000020003801402838014080B584B01D
:1004E00000AF786072B63F4B00229A643D4B9A6C25
:1004F0003C4B5A643B4B5A6C3A4B1A643A4B0022C1
:100500009A64394B9A6C384B5A64374B5A6C364B59
:100510001A64364B01221A60354B00221A60354BA3
:10052000344A1268802189020A431A60324BFB6008
:100530007968F86800F082FB0300FB602F4B2F4ABC
:1005400012688021C9020A431A602D4B2C4A126896
:100550002C490A401A609023DB059022D2051268CC
:10056000802109030A431A60274B274A1268102189
:100570000A431A609023DB059022D205126880217D
:1005800089030A431A60204B1F4A126880214900E0
:100590000A431A601D4B1D4A12688021C9010A4393
:1005A0001A601B4B1A4A12686C210A431A60194BD5
:1005B00000221A60184B00221A60184BFA681A6061
:1005C000134B134A126801210A431A60144B144A50
:1005D0001268802109050A431A6062B6C046BD460A
:1005E00004B080BD100000205C000020A8000020A6
:1005F0000C00002014100240006CDC0208000048CF
:1006000004000048FFFDFFFF2400004818100240CE
:100610000038014004380140083801400C380140DE
:1006200000E100E080B500AF084B1B68802213405A
:1006300001D000F025F8054B1B682022134001D0A3
:1006400000F006F8C046BD4680BDC0461C380140DB
:1006500080B500AF074B1B68DAB2074B11001800DA
:1006600000F04AF8031E02D0044B01221A60C04673
:10067000BD4680BD24380140100000200C00002041
:10068000B0B500AF164B180000F090F8031E07D06D
:10069000144C134B180000F05FF8030023601BE0BC
:1006A000114B114A126808218A431A600F4B1B68CC
:1006B0004022134005D00E4B0D4A126840210A43D8
:1006C0001A600A4B1B688022134005D0094B094A67
:1006D000126810210A431A60C046BD46B0BDC0462C
:1006E0005C00002028380140003801401C380140DF
:1006F000203801401838014080B582B000AF7860E2
:100700000A00FB1C1A707B681A6C7B685B6C9A424F
:1007100005D17B689B6C002B01D0012317E072B6DA
:100720007B681B6C591C7A6811647A68F91C09781B
:10073000D1547B689B6C5A1C7B689A647B681B6CE9
:10074000402B02D17B6800221A6462B60023180095
:10075000BD4602B080BDC04680B584B000AF7860B1
:100760007B689B6C002B01D100231AE072B67B687A
:100770005B6C591C7A6851640F22BA187968CB5C9B
:1007800013707B685B6C402B02D17B6800225A643B
:100790007B689B6C5A1E7B689A6462B60F23FB18B9
:1007A0001B781800BD4604B080BDC04680B582B03D
:1007B00000AF78607B689B6C1800BD4602B080BDBE
:1007C00080B582B000AF78600B4B1B68002B09D15D
:1007D00001235B420BE07B685A1C7A601900012000
:1007E000FFF72CFE7B681B78002BF4D10023180048
:1007F000BD4602B080BDC046A800002080B582B0D2
:1008000000AF0200FB1D1A70FB1D19000120FFF74D
:1008100015FEC046BD4602B080BDC04680B500AFE3
:10082000034B1800FFF798FF03001800BD4680BD7A
:100830001000002090B585B000AF786039601F4B84
:100840001B68002B02D101235B4232E00023FB60D6
:100850000B23FB1800221A7018E0C046184B180032
:10086000FFF7A4FF031EF9D00B23FC18144B18004C
:10087000FFF772FF03002370FB685A1CFA601A002E
:100880007B689B180B22BA1812781A703B685A1EA4
:10089000FB689A4204DD0B23FB181B780D2BDCD17F
:1008A000FB68002B04DDFB687A68D31800221A70FD
:1008B000FB681800BD4605B090BDC046A8000020EA
:1008C0001000002080B500AF1C4B1C4A126880212C
:1008D000C9020A431A601A4B194A1268802189001A
:1008E0000A431A60174B174A12680C210A431A6010
:1008F000154B154A1268802109060A431A60C04642
:10090000114B1B68002BFBDB104B07221A60104BAE
:100910000F4A1268802189000A431A600D4B0D4A64
:1009200012688021C9030A431A60074B064A1268FD
:1009300001210A431A60C046BD4680BD1410024022
:10094000181002400004004808240140142401400B
:10095000282401400827014080B500AF084B084A11
:10096000126804210A431A60C046054B1B68042222
:100970001340FAD1034B1B681800BD4680BDC0462A
:10098000082401404024014080B582B000AF786067
:10099000FEE7C04680B582B000AF786001235B42BD
:1009A0001800BD4602B080BD80B584B000AFF860CD
:1009B000B9607A60044B0C221A6001235B42180074
:1009C000BD4604B080BDC046B000002080B500AF79
:1009D000034B0B221A6001235B421800BD4680BD09
:1009E000B000002080B582B000AF786039603B680D
:1009F000802292015A6000231800BD4602B080BDDB
:100A000080B500AF01231800BD4680BD80B582B01F
:100A100000AF78603960044B16221A6001235B42F4
:100A20001800BD4602B080BDB000002080B582B085
:100A300000AF78603960044B1F221A6001235B42CB
:100A40001800BD4602B080BDB000002080B584B063
:100A500000AFF860B9607A6000231800BD4604B0AA
:100A600080BDC04680B582B000AF786039603B6819
:100A7000802292015A6000231800BD4602B080BD5A
:100A800080B582B000AF786001235B421800BD469C
:100A900002B080BD80B582B000AF7860044B022206
:100AA0001A6001235B421800BD4602B080BDC046FB
:100AB000B000002080B582B000AF7860044B0A22FD
:100AC0001A6001235B421800BD4602B080BDC046DB
:100AD000B000002080B582B000AF78607B68003342
:100AE000022B01D8012303E0034B09221A600023E3
:100AF0001800BD4602B080BDB000002080B586B0B1
:100B000000AF7860144B7B61144B154A94466344E4
:100B10003B61144B1B68002B02D1124B7A691A609F
:100B2000104B1B68FB600F4B1A687B68D2183B693F
:100B30009A4205D90C4B0C221A6001235B4206E055
:100B4000084B1A687B68D218064B1A60FB681800BD
:100B5000BD4606B080BDC046B40000200020002085
:100B600000F0FFFF08000020B000002080B588B032
:100B700000AFF860B9607A600023BB61FB68002BAE
:100B800024D10023FB611CE0FFF748FE03001A009C
:100B90001723FB181A70BB685A1CBA601722BA18C0
:100BA0001278D2B21A70BB690133BB611723FB18EC
:100BB0001B78DBB20A2B01D1BB690EE0FB69013364
:100BC000FB61FA697B689A42DEDB05E0054B09228E
:100BD0001A6001235B4200E0BB691800BD4608B003
:100BE00080BDC046B000002080B586B000AFF86080
:100BF000B9607A60FB68013B012B11D800237B614F
:100C000009E0BB685A1CBA601B781800FFF7F6FDB4
:100C10007B6901337B617A697B689A42F1DB05E08D
:100C2000054B09221A6001235B4200E07B68180033
:100C3000BD4606B080BDC046B000002003460B4351
:100C40007FD4002243088B4274D303098B425FD3C5
:100C5000030A8B4244D3030B8B4228D3030C8B42F1
:100C60000DD3FF22090212BA030C8B4202D31212D7
:100C7000090265D0030B8B4219D300E0090AC30BAC
:100C80008B4201D3CB03C01A5241830B8B4201D359
:100C90008B03C01A5241430B8B4201D34B03C01A42
:100CA0005241030B8B4201D30B03C01A5241C30ABA
:100CB0008B4201D3CB02C01A5241830A8B4201D32B
:100CC0008B02C01A5241430A8B4201D34B02C01A15
:100CD0005241030A8B4201D30B02C01A5241CDD2BA
:100CE000C3098B4201D3CB01C01A524183098B4205
:100CF00001D38B01C01A524143098B4201D34B01EE
:100D0000C01A524103098B4201D30B01C01A524150
:100D1000C3088B4201D3CB00C01A524183088B42D7
:100D200001D38B00C01A524143088B4201D34B00C0
:100D3000C01A5241411A00D2014652411046704732
:100D40005DE0CA0F00D04942031000D34042534037
:100D500000229C4603098B422DD3030A8B4212D3F7
:100D6000FC22890112BA030A8B420CD38901921129
:100D70008B4208D3890192118B4204D389013AD066
:100D8000921100E08909C3098B4201D3CB01C01A3B
:100D9000524183098B4201D38B01C01A524143094E
:100DA0008B4201D34B01C01A524103098B4201D33C
:100DB0000B01C01A5241C3088B4201D3CB00C01AA9
:100DC000524183088B4201D38B00C01A5241D9D2C1
:100DD00043088B4201D34B00C01A5241411A00D242
:100DE0000146634652415B10104601D34042002B3E
:100DF00000D54942704763465B1000D3404201B5BD
:100E0000002000F005F802BD0029F8D016E7704771
:100E10007047C04630313233343536373839414285
:100E200043444546000000004144432F5345524986
:100E3000414C2F434C4F434B20746573742E0D0A65
:100E4000000000004144435B395D3D307800000004
:100E50002C20000056202020202020200D00000003
:100E600052657475726E65642066726F6D206D6177
:100E7000696E282900000000496E746572727570F1
:100E80007420776974686F7574204953522E20203E
:100E900053797374656D2073746F702E00000000B9
:100EA00048617264204661756C7420696E74657265
:100EB000727570742E202053797374656D2073746D
:040EC0006F702E0021
:040EC4000400002006
:04000005080000C12E
:00000001FF
