:020000040800F2
:1000000000200020C1000008C7000008C700000849
:1000100000000000000000000000000000000000E0
:10002000000000000000000000000000C700000801
:100030000000000000000000C7000008C700000822
:10004000C7000008C7000008C7000008C700000874
:10005000C7000008C7000008C7000008C700000864
:10006000C7000008C7000008C7000008C700000854
:10007000C7000008C7000008C7000008C700000844
:10008000C7000008C7000008C7000008C700000834
:10009000C7000008C7000008C7000008C700000824
:1000A000C7000008C7000008C7000008C700000814
:1000B000C7000008C7000008C7000008C700000804
:1000C00000F010F8FEE7FEE780B582B000AF786080
:1000D000C0467B685A1E7A60002BFAD1C046BD46E6
:1000E00002B080BD80B500AF114B114A126880216B
:1000F00089020A431A609023DB059022D205126818
:1001000001210A431A600B4B0A4A126801210A4373
:100110001A60094B1800FFF7D7FF064B054A126813
:1001200001218A431A60044B1800FFF7CDFFEAE76C
:0C013000141002401400004820A1070039
:0400000508000000EF
:00000001FF
