:020000040800F2
:1000000000200020C1000008FD02000811030008C4
:1000100000000000000000000000000000000000E0
:10002000000000000000000000000000FD020008C9
:100030000000000000000000FD020008FD020008B2
:10004000FD020008FD020008FD020008FD02000894
:10005000FD020008FD020008FD020008FD02000884
:10006000FD020008FD020008FD020008FD02000874
:10007000FD020008FD020008FD020008FD02000864
:10008000FD020008FD020008FD020008FD02000854
:10009000FD020008FD020008FD020008FD02000844
:1000A000FD020008FD020008FD02000881050008AD
:1000B000FD020008FD020008FD020008FD02000824
:1000C00000F0C6F800F08AF8E1235B02180000F0A7
:1000D000B3F962B600F016F8024B180000F01CFBF2
:1000E000FEE7C046B05C000880B582B000AF786023
:1000F000C0467B685A1E7A60002BFAD1C046BD46C6
:1001000002B080BD90B583B000AF2B4B180002F059
:1001100037FD00F083FB294B284A126880218902B1
:100120000A431A609023DB059022D2051268012150
:100130000A431A6000F0BCFB03007B60786801F0A2
:10014000C5FB1F4A1F4B01F041F903000C001800CA
:10015000210000221C4B00F005FE03000C001800DB
:10016000210001F047FC031C3B60386801F0F0FB04
:1001700003000C00796815481A00230002F086FC81
:10018000134B1B689B68180001F01CFE114B114AB1
:10019000126801210A431A600F4B1800FFF7A4FFF1
:1001A0000C4B0C4A126801218A431A600A4B180052
:1001B000FFF79AFFBEE7C046805C000814100240BB
:1001C0006666666666660A400000B040985C000895
:1001D000040000201400004820A1070080B582B070
:1001E00000AF154B7B60154B3B6007E03B681A1D69
:1001F0003A607A68111D796012681A603A68104B8B
:100200009A42F3D304E03B681A1D3A6000221A6058
:100210003A680C4B9A42F6D30B4B3B6004E03B68C8
:100220001A1D3A601B6898473A68084B9A42F6D301
:10023000C046BD4602B080BD8060000800000020BE
:10024000D401002090020020806000088060000837
:1002500080B500AF244B244A126824490A401A6032
:10026000C046214B1A6880239B041340F9D1204BD0
:100270001F4A126801210A431A601D4B1C4A12686A
:1002800006218A431A601A4B194A126810210A4340
:100290001A60184B174A126817490A401A60154B22
:1002A000144A1268A02189030A431A60114B114AAB
:1002B00012688021C9010A431A600B4B0A4A12686E
:1002C000802149040A431A60C046074B1A688023FC
:1002D0009B041340F9D0074B064A126802210A43D7
:1002E0001A60C046BD4680BD00100240FFFFFFFE01
:1002F0000020024004100240FFFFC3FF80B500AFA2
:10030000024B180000F008FAFEE7C046C85C00087F
:1003100080B500AF024B180000F0FEF9FEE7C046C2
:10032000F05C000890B585B000AF78603960184B7C
:100330001B68002B02D101235B4224E00023FB60F9
:100340000AE0FB685A1CFA603A68D418114B18008E
:1003500000F0AFF9030023707B68013B1A00FB68D3
:100360009A4205D90B4B180000F0CCF9031EE8D1D6
:10037000FB68002B06D03A68FB68D31800221A707D
:10038000FB6800E000231800BD4605B090BDC046E4
:1003900084020020EC01002090B585B000AF7860A9
:1003A0003960214B1B68002B02D101235B4237E0EF
:1003B0007B683F2B0BDCC0461C4B180000F0A2F9F9
:1003C000020040239A1A7B689A42F5D302E0022386
:1003D0005B4225E00023FB600BE03A68FB68D31822
:1003E0001A78124B1100180000F034F9FB68013341
:1003F000FB607B68FA689A42EFD30D4B1B680822BA
:1004000013400CD10A4B0A4A126808210A431A60A9
:10041000084C064B180000F04CF903002360002341
:100420001800BD4605B090BD8402002038020020AF
:10043000003801402838014080B584B000AF7860B2
:1004400072B63F4B00229A643D4B9A6C3C4B5A6407
:100450003B4B5A6C3A4B1A643A4B00229A64394B24
:100460009A6C384B5A64374B5A6C364B1A64364B7D
:1004700001221A60354B00221A60354B344A12684B
:10048000802189020A431A60324BFB607968F86860
:1004900000F07CFB0300FB602F4B2F4A1268802189
:1004A000C9020A431A602D4B2C4A12682C490A4093
:1004B0001A609023DB059022D2051268802109037F
:1004C0000A431A60274B274A126810210A431A6010
:1004D0009023DB059022D2051268802189030A430C
:1004E0001A60204B1F4A1268802149000A431A6093
:1004F0001D4B1D4A12688021C9010A431A601B4B1B
:100500001A4A12686C210A431A60194B00221A60B9
:10051000184B00221A60184BFA681A60134B134AE2
:10052000126801210A431A60144B144A1268802190
:1005300009050A431A6062B6C046BD4604B080BDD4
:10054000EC0100203802002084020020E801002095
:1005500014100240006CDC0208000048040000484F
:10056000FFFDFFFF24000048181002400038014042
:1005700004380140083801400C38014000E100E037
:1005800080B500AF084B1B688022134001D000F0FB
:1005900025F8054B1B682022134001D000F006F817
:1005A000C046BD4680BDC0461C38014080B500AF86
:1005B000074B1B68DAB2074B1100180000F04AF82D
:1005C000031E02D0044B01221A60C046BD4680BD06
:1005D00024380140EC010020E8010020B0B500AF54
:1005E000164B180000F08EF8031E07D0144C134B66
:1005F000180000F05EF8030023601BE0114B114A65
:10060000126808218A431A600F4B1B68402213406E
:1006100005D00E4B0D4A126840210A431A600A4B5E
:100620001B688022134005D0094B094A126810212B
:100630000A431A60C046BD46B0BDC046380200201D
:1006400028380140003801401C3801402038014062
:100650001838014080B582B000AF78600A00FB1CFA
:100660001A707B681A6C7B685B6C9A4205D17B6858
:100670009B6C002B01D0012317E072B67B681B6CCA
:10068000591C7A6811647A68F91C0978D1547B681E
:100690009B6C5A1C7B689A647B681B6C402B02D154
:1006A0007B6800221A6462B600231800BD4602B0BF
:1006B00080BD80B584B000AF78607B689B6C002BF8
:1006C00001D100231AE072B67B685B6C591C7A6812
:1006D00051640F22BA187968CB5C13707B685B6C2D
:1006E000402B02D17B6800225A647B689B6C5A1EA7
:1006F0007B689A6462B60F23FB181B781800BD460E
:1007000004B080BD80B582B000AF78607B689B6C20
:100710001800BD4602B080BD80B582B000AF7860E1
:100720000B4B1B68002B09D101235B420BE07B685C
:100730005A1C7A6019000120FFF72EFE7B681B7897
:10074000002BF4D100231800BD4602B080BDC04686
:100750008402002080B582B000AF0200FB1D1A7039
:10076000FB1D19000120FFF717FEC046BD4602B071
:1007700080BD80B500AF044B1800FFF79AFF03005F
:100780001800BD4680BDC046EC01002090B585B084
:1007900000AF786039601F4B1B68002B02D101232A
:1007A0005B4232E00023FB600B23FB1800221A702F
:1007B00018E0C046184B1800FFF7A4FF031EF9D03D
:1007C0000B23FC18144B1800FFF773FF0300237072
:1007D000FB685A1CFA601A007B689B180B22BA1837
:1007E00012781A703B685A1EFB689A4204DD0B238C
:1007F000FB181B780D2BDCD1FB68002B04DDFB689C
:100800007A68D31800221A70FB681800BD4605B03C
:1008100090BDC04684020020EC01002080B500AFEE
:100820001C4B1C4A12688021C9020A431A601A4BE9
:10083000194A1268802189000A431A60174B174A27
:1008400012680C210A431A60154B154A1268802160
:1008500009060A431A60C046114B1B68002BFBDBDC
:10086000104B07221A60104B0F4A12688021890032
:100870000A431A600D4B0D4A12688021C9030A43CE
:100880001A60074B064A126801210A431A60C046E3
:10089000BD4680BD141002401810024000040048FC
:1008A0000824014014240140282401400827014065
:1008B00080B500AF084B084A126804210A431A6049
:1008C000C046054B1B6804221340FAD1034B1B683A
:1008D0001800BD4680BDC0460824014040240140A8
:1008E00080B582B000AF7860FEE780B582B000AF1F
:1008F000786001235B421800BD4602B080BD80B520
:1009000084B000AFF860B9607A60044B0C221A60C2
:1009100001235B421800BD4604B080BD8C0200205C
:1009200080B500AF034B0B221A6001235B42180015
:10093000BD4680BD8C02002080B582B000AF7860DB
:1009400039603B68802292015A6000231800BD463E
:1009500002B080BD80B500AF01231800BD4680BD48
:1009600080B582B000AF78603960044B16221A60FF
:1009700001235B421800BD4602B080BD8C020020FE
:1009800080B582B000AF78603960044B1F221A60D6
:1009900001235B421800BD4602B080BD8C020020DE
:1009A00080B584B000AFF860B9607A6000231800A9
:1009B000BD4604B080BD80B582B000AF78603960BC
:1009C0003B68802292015A6000231800BD4602B0A5
:1009D00080BD80B582B000AF786001235B42180013
:1009E000BD4602B080BD80B582B000AF7860044BD8
:1009F00002221A6001235B421800BD4602B080BD8E
:100A00008C02002080B582B000AF7860044B0A22CF
:100A10001A6001235B421800BD4602B080BDC0468B
:100A20008C02002080B582B000AF78607B68003314
:100A3000022B01D8012303E0034B09221A60002393
:100A40001800BD4602B080BD8C02002080B586B083
:100A500000AF7860144B7B61144B154A9446634495
:100A60003B61144B1B68002B02D1124B7A691A6050
:100A7000104B1B68FB600F4B1A687B68D2183B69F0
:100A80009A4205D90C4B0C221A6001235B4206E006
:100A9000084B1A687B68D218064B1A60FB6818006E
:100AA000BD4606B080BDC046900200200020002058
:100AB00000F0FFFFD80100208C02002080B588B034
:100AC00000AFF860B9607A600023BB61FB68002B5F
:100AD00024D10023FB611CE0FFF74BFE03001A004A
:100AE0001723FB181A70BB685A1CBA601722BA1871
:100AF0001278D2B21A70BB690133BB611723FB189D
:100B00001B78DBB20A2B01D1BB690EE0FB69013314
:100B1000FB61FA697B689A42DEDB05E0054B09223E
:100B20001A6001235B4200E0BB691800BD4608B0B3
:100B300080BDC0468C02002080B586B000AFF86052
:100B4000B9607A60FB68013B012B11D800237B61FF
:100B500009E0BB685A1CBA601B781800FFF7FAFD61
:100B60007B6901337B617A697B689A42F1DB05E03E
:100B7000054B09221A6001235B4200E07B681800E4
:100B8000BD4606B080BDC0468C02002003460B4324
:100B90007FD4002243088B4274D303098B425FD376
:100BA000030A8B4244D3030B8B4228D3030C8B42A2
:100BB0000DD3FF22090212BA030C8B4202D3121288
:100BC000090265D0030B8B4219D300E0090AC30B5D
:100BD0008B4201D3CB03C01A5241830B8B4201D30A
:100BE0008B03C01A5241430B8B4201D34B03C01AF3
:100BF0005241030B8B4201D30B03C01A5241C30A6B
:100C00008B4201D3CB02C01A5241830A8B4201D3DB
:100C10008B02C01A5241430A8B4201D34B02C01AC5
:100C20005241030A8B4201D30B02C01A5241CDD26A
:100C3000C3098B4201D3CB01C01A524183098B42B5
:100C400001D38B01C01A524143098B4201D34B019E
:100C5000C01A524103098B4201D30B01C01A524101
:100C6000C3088B4201D3CB00C01A524183088B4288
:100C700001D38B00C01A524143088B4201D34B0071
:100C8000C01A5241411A00D20146524110467047E3
:100C90005DE0CA0F00D04942031000D340425340E8
:100CA00000229C4603098B422DD3030A8B4212D3A8
:100CB000FC22890112BA030A8B420CD389019211DA
:100CC0008B4208D3890192118B4204D389013AD017
:100CD000921100E08909C3098B4201D3CB01C01AEC
:100CE000524183098B4201D38B01C01A52414309FF
:100CF0008B4201D34B01C01A524103098B4201D3ED
:100D00000B01C01A5241C3088B4201D3CB00C01A59
:100D1000524183088B4201D38B00C01A5241D9D271
:100D200043088B4201D34B00C01A5241411A00D2F2
:100D30000146634652415B10104601D34042002BEE
:100D400000D54942704763465B1000D3404201B56D
:100D5000002000F005F802BD0029F8D016E7704722
:100D60007047C046F0B557464546DE464E46E0B5AC
:100D70004C000E0387B0834692461D008046360B1A
:100D8000640DCF0F002C4FD06F4B9C4235D0802389
:100D9000420F1B04F600134333439946C3009846A1
:100DA0006A4B00269C460023644403932B031B0BD1
:100DB0009B466B00ED0F50465B0D01955ED0624A7D
:100DC000934253D05A46D1008022400F120402436E
:100DD0000A4393465246D1005C4A9446002263443B
:100DE0003800684084460290E41A16430F2E00D95A
:100DF000B4E0574BB6009B599F46030033439946D6
:100E00006CD100239846023308260393CEE7CB46E5
:100E10004146039A0197022A65D1019B4A4C9C46A0
:100E20000023002298466BE00300334399464ED0DE
:100E3000002E00D1BCE1300000F0F0FE03000B3BBF
:100E40001C2B00DDACE11D22D31A5A460100DA400A
:100E500008398E401300334399465B468B409846D1
:100E600000233C4C0026241A03939FE751465A4620
:100E7000114329D1002293460232B1E7594601437A
:100E80001ED05B46002B00D19EE1584600F0C6FE06
:100E900003000B3B1C2B00DD8FE102005946083A92
:100EA00091408B461D21CB1A5146D9400B00594623
:100EB0000B4351469B469140264B00221B1A8FE75D
:100EC000002301229B468BE75146032288E700233B
:100ED0009846013304260024039367E70323B146B1
:100EE00003930C2662E7032A00D15CE2019B012AEE
:100EF00000D0E4E113409C460023002400229846E1
:100F000000211203130B0A0D12051A432305124C7C
:100F100040462240134362465B00D2075B081343FE
:100F2000190007B03CBC90469946A246AB46F0BDBE
:100F3000002380229C4612039846034CE0E70023DE
:100F4000014C00229846DBE7FF07000001FCFFFF91
:100F5000145D00080DFCFFFFFFFF0F80D94500D98D
:100F600039E100D134E1002346464D469A46013C22
:100F70005B460A0E1B021A430B02170C0393130461
:100F80001B0C390028009046019300F0BDFD0200C3
:100F9000019B83465A4328003900914600F03AFEEF
:100FA000350C09040D43A9450DD95B464544013B69
:100FB000A84500D93AE1A94500D837E102235B42B0
:100FC0009C464544E3444B46EB1A39001800049311
:100FD00000F09AFD019B05004343390004989946AF
:100FE00000F018FE330409041B0C0B43994509D982
:100FF00043446A1E984500D91AE1994500D817E183
:10100000023D43444A469B1A5A4612042A43039916
:101010009346100C0A0C914609045A46090C4E4698
:101020000D001204120C4543059151437243704365
:1010300052190E0CB218954203D980256D02AC46A8
:101040006044150C09041204090C28185218834234
:1010500000D2CEE000D1C8E01D1A53469E1AB24518
:1010600092415242AB1A9A46984500D117E1390095
:10107000180000F049FD019B05004343390050462C
:10108000049300F0C7FD04980B04310C1943884207
:1010900009D941446B1E884500D907E1884200D830
:1010A00004E1023D4144049BCB1A1800390004932B
:1010B00000F02AFD019B82464343390004980193C6
:1010C00000F0A8FD01980B043104090C1943884273
:1010D0000DD953464144013B884500D9E8E0884298
:1010E00000D8E5E002235B429C464144E244019B78
:1010F0002D04CE1A51462943059D4F462A000B0464
:10110000080C1B0C5A4345437B4378435B19170C6F
:10111000FB189D4203D980256D02AC4660441D0C2E
:1011200012041B04120C28189B18864200D293E06C
:1011300000D18EE001231943A04BE318002B00DC03
:1011400099E04A0700D09EE05A46D20106D55A4699
:101150009B4B1A4080239346DB00E318994A934245
:1011600068DD0123029A984C1A4000239446984661
:101170000022C5E680224B46120313420AD05B468A
:10118000134206D11A431203120BAC4688468E4C0A
:10119000B6E64B461A431203120BBC468A4CAFE626
:1011A00003005A46283B9A4000239146984657E64A
:1011B000584600F033FD203040E603005246283BFD
:1011C0009A400021934677E600F028FD20305FE644
:1011D000884500D2C7E64B46DE075D0843465B08FC
:1011E0001E434346DB079A46C2E60025924500D3DC
:1011F00033E7039E5946B446E244B245AD416D42E1
:101200004544EB180139984507D2984200D97FE050
:1012100000D1BCE01D1A8B461FE79845FAD1039D0B
:101220005545F2D943468B461D1A16E79B46CAE63A
:101230001500E7E65A46C90852070A435B0590467F
:101240005C0D5A460123029952021940120B8C463A
:1012500056E6002B00D16FE746444A1EB04529D917
:101260001100864200D065E7039A934200D061E7FF
:1012700062E7012149420120C21A382A21DD029B7E
:1012800003409C4638E60F220A40042A00D15BE75F
:101290000A00111D914292415242934454E7474B38
:1012A000E318002BE5DD01225242F2E71D00FAE6C9
:1012B0009A461CE7B04239D86ED011003AE7029343
:1012C0003AE71F2A3CDC20239B1A0C005846994021
:1012D00098404B1E99415B46D440D340204308437D
:1012E0001A00430709D00F230340042B05D0010047
:1012F000081D88429B415B42D21813023AD5012354
:10130000029A01241A400023944698460022F7E5E9
:10131000022149428C46039DE344AC46E244AA457F
:10132000AD416D424544ED182D1A96E68A1E03998B
:101330004D008D42894149424144761803958FE71B
:101340001F204042C31A5846D8400300202A28D004
:1013500040205D46821A954029434A1E9141194317
:10136000072300220B4009D00F2300220B40080066
:10137000042BBDD1010053075202120BC9081943B7
:10138000012388460299002419408C46B8E552454D
:10139000BED88B46002560E6039D9D42C6D3110052
:1013A00062E70025D8E780225B4612031A43019BBF
:1013B0001203120B9C468846034CA1E5FF03000074
:1013C000FFFFFFFEFE070000FF070000F0B55746D5
:1013D0004546DE464E46E0B50C0398464E00230BCC
:1013E00087B0070092469B46760DCD0F002E6BD03E
:1013F0006D4B9E4235D080245B46420F2404DB00B7
:1014000014431C43C3009946684BA3469C460023E3
:1014100000276644029343461C035A00DB0F5046E4
:10142000240B520D984600D176E05F4B9A426DD066
:101430008023410F1B040B435C49E4008C461C4392
:10144000C300002062444146B6186940721C0191F5
:10145000944607430F2F00D9B0E0554ABF00D25938
:1014600097465B460343994600D087E000239B469E
:10147000023308270293CEE742460192022867D042
:10148000032800D10EE2012800D062E100230024ED
:101490000022994601990140CDB2002112030B0DA3
:1014A000120B1B051343434A240513401C436400DD
:1014B000ED0764082C434846210007B03CBC904629
:1014C0009946A246AB46F0BD034399464FD05B46D2
:1014D000002B00D189E1584600F0A0FB03000B3B34
:1014E0001C2B00DD7AE11D22D31A3A0001005C4674
:1014F000DA4008398C4013008F4023439B46B9469D
:1015000000232D4E0027361A029384E753462343C7
:101510002AD10024022096E75346234320D0002CF2
:1015200000D157E1200000F079FB03000B3B1C2B9E
:1015300000DD49E11D21CB1A51460200D940534636
:10154000083A944093400C431B4A121A00207AE751
:101550000125019B144C1D400023002299469CE765
:101560000024002201206EE7534603206BE700238E
:101570009B4601330427002602934CE70323814650
:101580000C27029347E78022002300251203994687
:10159000054C82E75C464B4602986FE75C464B463B
:1015A000019502986AE7C046FF07000001FCFFFFB3
:1015B000545D0008FFFF0F800DFCFFFF4A464946BF
:1015C000170C1A0C1B041B0C08041900000C4143D7
:1015D0001500884619007D43794303958946290003
:1015E000150045434D44029545462D0CAA46029DE3
:1015F0005544A94506D98A46802149028946CA44EC
:1016000051460391290C0491414609042D04090C0B
:1016100088462900250C24044144240C059121000E
:1016200041438846210079438A46684341465044F5
:101630008146080C48446F43824503D98021490202
:1016400089464F44010C894639004944029141467C
:101650000F0404993F0C88460004C0198044414699
:10166000049159460F0C0904090C884659438A46CF
:1016700039005143894641464A435146090C8B463D
:101680007B43D2185A44934203D980235B029B4682
:10169000D94451460904090C8A46414661437C43BA
:1016A000130C12044B445244A1468A463C00414666
:1016B0006C434D4351464D440F0C7D19A94503D948
:1016C0008021490288464444049F0399B846414416
:1016D0008B468345804141428846514608042F0489
:1016E000000C3F18584602991018894690429241C2
:1016F0004F44BA46524299469346C244D144CB44E1
:101700008F42BF41C245894199459B4193459241D2
:101710007F4249422D0C52420F435B4213437F19D3
:10172000FF185B463C19DB0D059A64021C4343021B
:1017300013435D1EAB415A46C00D0343520213438F
:10174000E20156D501205A0803401343E207134330
:1017500064085A48604400284DDD5A0709D00F221A
:101760001A40042A05D01A1D9A429B415B42E41894
:101770001300E20104D58020514AC00014406044A7
:10178000504A904200DDE3E60125DB0862071A4378
:101790006402019B9146220B4405640D1D407CE6CA
:1017A000802259461203114208D0144206D1224326
:1017B0001203120B45469946434C6EE65B461A43AC
:1017C0001203120B404C68E603005446283B9C4031
:1017D0000023B9E600F022FA2030A6E60300283BF9
:1017E0009F400023BB4699468AE600F017FA203056
:1017F00074E6B446ADE701252A1A382A06DD019BB6
:1018000000241D4000230022994646E61F2A21DCC1
:1018100020252000AD1A1E00AB40A840D6405D1E1A
:10182000AB4130431843D440430709D00F23034052
:10183000042B05D00300181D98429B415B42E4181D
:10184000230221D50125019B01241D4000230022F4
:10185000994622E61F2521006D42281AC140080042
:10186000202A1DD05F35AA1A944023435C1EA34151
:10187000072503431D400022002D09D00F2200241C
:101880001A401800042AD6D1030065076402220B0F
:10189000DB082B4301259946019B00241D40FCE5F4
:1018A0000024E2E78022012512032243019912035A
:1018B000120B0D409946044CEFE5C046FF030000B3
:1018C000FFFFFFFEFE070000FF07000070B50028C5
:1018D00030D0C317C4185C40C50F200000F09EF93B
:1018E000174B184A1B1AD21A1F2A18DD164AD21A89
:1018F0009440002224035B05240B5B0D00211000A3
:1019000024030A0D240B12052243104C1B05224010
:1019100013435B00ED075B082B43190070BD2100EA
:1019200091400A000B21081AC4405B052403240BD4
:101930005B0DE3E70025002300240022DEE7C0461C
:101940001E0400003304000013040000FFFF0F809A
:101950004100090E4B1C70B5DBB24602750AC40F7C
:10196000012B14DDE0239B006D07360BCB18002103
:101970000A0D280012051C4D32435B052A405B0806
:1019800013435B00E4075B082343190070BD002983
:1019900014D1002D1ED0280000F040F90A281CDCCC
:1019A0000B232A001B1ADA40030015339D400F4B0E
:1019B00012031B1A5B05160B5B0DD8E7002D06D032
:1019C000320B802636036D071643094BCFE7084BD1
:1019D0000026CCE700230026C9E703002A000B3BC2
:1019E0009A400025E3E7C046FFFF0F80890300000F
:1019F000FF070000F0B54C00640D0B03621C450F9F
:101A00005B0A52052B43C90FC500520D012A28DD80
:101A10003A4AA618FE2E1BDC002E3EDD8001020095
:101A2000501E82416D0F2A43DB0013435A0704D036
:101A30000F221A40042A00D004338022D2041A4014
:101A40005AD00136FF2E03D09B015B0AF4B201E0AD
:101A5000FF2400235802E405400AC9072043084335
:101A6000F0BD002C07D01D43F2D08020DB008004A5
:101A70000343FF26DAE72B4303D00523DB08FF2CC3
:101A800003D05B025B0AE4B2E4E7002B32D0802093
:101A9000C00303435B025B0ADCE73200173214DB4E
:101AA00080221E2712041343BF1B1F2F0FDC144A72
:101AB000944664442A00A5402E00A340751EAE4102
:101AC000FA40334313430026B0E70024D5E702224F
:101AD0005242961B1A00F240202F09D00948844632
:101AE0006444A3402B435D1EAB41002613439DE796
:101AF0000023F7E70023ADE73400BFE780FCFFFFDA
:101B000082FCFFFFA2FCFFFF002243088B4274D33C
:101B100003098B425FD3030A8B4244D3030B8B42EE
:101B200028D3030C8B420DD3FF22090212BA030CF7
:101B30008B4202D31212090265D0030B8B4219D3D8
:101B400000E0090AC30B8B4201D3CB03C01A5241F8
:101B5000830B8B4201D38B03C01A5241430B8B4240
:101B600001D34B03C01A5241030B8B4201D30B0329
:101B7000C01A5241C30A8B4201D3CB02C01A524150
:101B8000830A8B4201D38B02C01A5241430A8B4213
:101B900001D34B02C01A5241030A8B4201D30B02FC
:101BA000C01A5241CDD2C3098B4201D3CB01C01A16
:101BB000524183098B4201D38B01C01A5241430920
:101BC0008B4201D34B01C01A524103098B4201D30E
:101BD0000B01C01A5241C3088B4201D3CB00C01A7B
:101BE000524183088B4201D38B00C01A52414308F3
:101BF0008B4201D34B00C01A5241411A00D2014618
:101C0000524110467047FFE701B50020FFF7A8F8E2
:101C100002BDC0460029F7D076E770471C2101239A
:101C20001B04984201D3000C10391B0A984201D3BF
:101C3000000A08391B09984201D30009043902A29D
:101C4000105C40187047C046040302020101010104
:101C50000000000000000000F7B58A8905000C00B4
:101C6000130760D44B68002B04DC0B6C002B01DCE9
:101C70000020FEBDE76A002FFAD000232E682B60FB
:101C800080235B011A4034D0606DA3895B0706D5C1
:101C90006368C01A636B002B01D0236CC01A02006A
:101CA000216A00232800E76AB847A189431C06D1AE
:101CB0002B681D2B31D82C4ADA40D3072DD50023B1
:101CC000636023692360CB0405D5431C02D12B68D4
:101CD000002B00D16065616B2E600029C8D0230005
:101CE0004433994202D0280000F0A4F90020606338
:101CF000BFE70123216A2800B847431CC5D12B68E0
:101D0000002BC2D01D2B01D0162B01D12E60AFE7C6
:101D10004023A2891343A381ABE740230B43012057
:101D2000A3814042A5E70F69002FA1D00B680F6087
:101D3000DB1B01930023920700D14B69A360019B39
:101D4000002B00DC94E7019B3A00216A2800A66A78
:101D5000B047002803DC4023A2891343DFE7019B3F
:101D60003F181B1A0193EAE7010040200B6970B588
:101D700005000C00002B01D1002070BD002804D00C
:101D80008369002B01D100F07FF80B4B9C4209D1F5
:101D90006C680C22A35E002BEED021002800FFF718
:101DA0005BFFEAE7054B9C4201D1AC68F1E7044BCD
:101DB0009C42EED1EC68ECE7B45D0008D45D00080D
:101DC000945D000810B5011E05D1054B0549186842
:101DD00000F006F910BD044B1868FFF7C7FFF9E7DC
:101DE000F45D00086D1D000804000020002070470D
:101DF00010B5024900F0F4F810BDC0466D1D000892
:101E0000002310B504000360436083608181436652
:101E1000C281036143618361190008225C3000F0D4
:101E200000F9054B24626362044BA362044BE36236
:101E3000044B236310BDC046B92B0008E52B0008F6
:101E40001D2C0008492C00080020704770B568253B
:101E50004A1E55430E002900743100F035F9041E66
:101E600008D000212A00016046600C30A060683272
:101E700000F0D7F8200070BD10B5024B1868FFF7CE
:101E8000B7FF10BDF45D0008836913B50400002B93
:101E900028D18364C3640365134B144A1B688262B0
:101EA0000193984201D101238361200000F020F8C2
:101EB0006060200000F01CF8A060200000F018F81E
:101EC0000022E06004216068FFF79AFF01220921E7
:101ED000A068FFF795FF02221221E068FFF790FF4C
:101EE0000123A36113BDC046F45D0008F11D000885
:101EF000F8B51E4B07001E68B369002B02D13000F5
:101F0000FFF7C2FF4836B4687368013B04D53368F5
:101F1000002B07D03668F6E70C22A55E002D0DD009
:101F20006834F2E704213800FFF790FF30600028A2
:101F3000F0D10C2304003B602000F8BD01232000F9
:101F40005B42E3810233A38165662560A56065601D
:101F500025616561A561082229005C3000F061F807
:101F60006563A563A564E564E6E7C046F45D000823
:101F7000704770477047704710B5034B03491868A6
:101F800000F012F810BDC04604000020491E0008F1
:101F900010B5034B0349186800F006F810BDC046A1
:101FA00004000020ED1D0008F7B5483004000026AD
:101FB0000191002C01D13000FEBDA5686768013F8A
:101FC00001D52468F5E7AB89012B07D90E22AB5E5A
:101FD000013303D02800019B984706436835EEE79C
:101FE000F7B504000700002601914834002C01D108
:101FF0003000FEBD6368A5680093009B013B009321
:1020000001D52468F2E7AB89012B08D90E22AB5E1B
:10201000013304D029003800019B984706436835F6
:10202000EBE703008218934200D170471970013327
:10203000F9E7000070B50500002910D00C1F2368D7
:10204000002B00DAE418280001F036FE1D4A136860
:10205000002B05D163601460280001F02EFE70BDD6
:10206000A34209D9216860188342F3D118685B68DC
:1020700041182160EEE713005A68002A01D0A242FD
:10208000F9D919685818A0420BD1206809185818B6
:1020900019608242E0D110685268411819605A6094
:1020A000DAE7A04202D90C232B60D5E7216860183B
:1020B000824203D1106852684118216062605C60FE
:1020C000CAE7C046DC010020032370B5CD1C9D4348
:1020D000083506000C2D1ED20C25A9421DD8300053
:1020E00001F0EAFD254A14682100002919D1244C89
:1020F0002368002B03D1300000F04CFD2060290044
:10210000300000F047FD431C2CD10C23300033601D
:1021100001F0D3FD03E0002DDFDA0C233360002053
:1021200070BD0B685B1B1AD40B2B03D90B60CC184A
:10213000256003E08C420ED163681360300001F02B
:10214000BCFD200007220B30231D9043C31AE7D0AB
:102150005A42E250E4E74B6863600C00EEE70C0083
:102160004968C2E70323C41C9C43A042E0D0211A63
:10217000300000F00FFD431CDAD1C6E7DC0100207F
:10218000E0010020F0B58BB014001D1E129953DA47
:10219000802424061B191D0014002D230B702023FE
:1021A000149E03229E43462E07D03300453B5942DE
:1021B0004B411099013ACB18109309AB049308AB2B
:1021C0000393139B00920293109B220001932B0018
:1021D00000F0C8FE0700472E02D1119BDB0724D573
:1021E000109BFB180793462E14D13B78302B0CD153
:1021F000002200232000290002F062FD002804D103
:102200000123109A9B1A139A1360139B079A1B6859
:10221000D3180793002200232000290002F050FD6C
:10222000302200280DD0079B09933800099B159A8E
:10223000DB1B13600BB0F0BD0023AFE7591C099105
:102240001A70099B07999942F8D8EEE7F0B52B234D
:1022500085B007000C000270861C002901DA2D23CE
:102260004C427B70092C23DD02ABDD1D6B1E200070
:102270000A210193FEF770FD6B1E303119702000AA
:102280000A21FEF783FC040009280ADC023D3034F1
:102290002C7002AB07333000AB4204D8C01B05B032
:1022A000F0BD019DE2E72B78013533700136F0E790
:1022B0003023E4183370B01C7470EFE7F0B595B0BC
:1022C0000C000A920B931A9D099001F035FC0368EB
:1022D00018000D9300F0BEFC0023129323680E90AB
:1022E0000C930C99277E2B680722C90547D59B18AC
:1022F00093431A0008322A601A685B68A264E36498
:102300000122E56CA66C6B005B080F935242A74B51
:1023100030000F9903F028FC002800D006E20122CB
:10232000A24B524230000F9902F0DAFC002800D094
:10233000FCE1002200233000290002F0C7FC002845
:1023400003D023002D2243331A70994D472F00D814
:10235000984D032300260C9A236101339A4322608F
:102360000B9B13AA009321000A9B099800F0F2F935
:10237000431C00D09CE00120404215B0F0BD073363
:10238000B6E780236268DB00511C45D107326260EA
:102390000C9A0021134312AA059211AA0392232238
:1023A00023600691019308A9636852180292009372
:1023B00032002B0004970998FFF7E4FE20233A002F
:1023C00005009A43472A07D1119BDA1C02DB626899
:1023D00093425BDD023FFFB21199652F3BD820008D
:1023E00001393A0050301191FFF730FF129A060080
:1023F00083182361012A02DC2268D20701D5013348
:102400002361232308AA9B181B78002BA8D0230044
:102410002D2243331A70A3E7672F01D0472FB7D17E
:10242000002A16D00C9908A80B430021069112A986
:10243000059111A9039123210918236001930092AA
:102440002B000497029132000998FFF79BFE0500CC
:10245000BAE701229BE7662F19D1636800290CDDDA
:102460002161002B02D12268D20702D501335B180B
:102470002361119B0026A365C3E7002B03D1012232
:102480002168114200D09A1C2261F2E76727119B54
:102490001298834205DB22682361D207E9D5013314
:1024A000E6E70122002B01DC9218D21A1218EBE7A2
:1024B0002268530508D423692A000A9909980B9DBC
:1024C000A847431C29D156E7652F00D8DCE0A06C53
:1024D000E16C0022002302F0F3FB002835D0012339
:1024E000354A0A9909980B9DA847431C00D142E739
:1024F000119B129A934202DB2368DB070DD50B9DDB
:102500000E9B0D9A0A990998A8470025431C00D1F3
:1025100031E7129B013B9D420BDB236800259B07A3
:1025200000D5FDE0139BE068984200DB25E718002A
:1025300023E7220001231A320A9909980B9EB0471B
:10254000431C00D117E70135E3E7119B002B35DC75
:102550000123194A0A9909980B9EB047431C00D1E0
:1025600009E7119B002B05D1129B002B02D1236898
:10257000DB07D2D50B9E0E9B0D9A0A990998B0479E
:102580000026431C00D1F6E6119B5B429E4201DB14
:10259000129B91E7220001231A320A9909980B9F96
:1025A000B847431C00D1E6E60136EDE7FFFFEF7FB9
:1025B000FC5D0008F85D0008085E0008A36D129E2F
:1025C0009E4200DD1E00002E35DC00230C93F343F9
:1025D000DB170F930F9BA76D0C9A3340FB1A9A429F
:1025E00032DB119B129A93423CDB2368DB0739D420
:1025F000129E119AF31BB61A9E4200DD1E00002E99
:1026000039DCF7430025FB170C93119A129B0C99A8
:102610009B1A32000A409B1A9D4200DB7DE7220094
:1026200001231A320A9909980B9FB847431C00D11D
:10263000A1E60135E9E733002A000A9909980B9FC2
:10264000B847431CC1D196E6220001231A320A99E9
:1026500009980B9FB847431C00D18CE60C9B0133B3
:102660000C93B7E70E9B0D9A0A9909980B9EB047F9
:10267000431CBDD17FE6EA1933000A9909980B9DE6
:10268000A847431CBDD176E6129B012B02DC012337
:102690001A4238D001232A000A9909980B9FB8479B
:1026A000431C00D167E60E9B0D9A0A9909980B9F6F
:1026B000B847431C00D15EE6A06CE16C0022002309
:1026C00002F0FEFA002808D00025129B013B9D4233
:1026D0000DDB220033005032EFE6129B6A1C013BF7
:1026E0000A9909980B9DA847431CF2D143E62200A2
:1026F00001231A320A9909980B9FB847431C00D14D
:1027000039E60135E1E72A00EAE722000123193220
:102710000A9909980B9EB047431C00D12BE601355E
:10272000E368139A9B1A9D42EFDBFBE632002B0015
:102730003000290003F018FA002800D121E6034DEB
:10274000472F00D905E6024D03E6C046045E0008A7
:10275000005E0008F7B5150001938A680B690090C8
:102760000C00934200DA130022002B6043321278EF
:10277000002A01D001332B6023689B0602D52B6809
:1027800002332B60062723681F4027D023004333E2
:102790001B785A1E93412268920630D42200019978
:1027A00043320098089EB047431C25D0062320687A
:1027B0002A68E16803400025042B03D18D1AEB43FE
:1027C000DB171D40A3682269934201DD9B1AED18B7
:1027D0000027BD4220D1002010E00137E3682A68BD
:1027E0009B1A9F42D2DA22000123193201990098E4
:1027F000089EB047431CF0D101204042FEBD30206E
:10280000E1184331087021005A1C45310978A2189B
:10281000433202331170C1E7220001231A320199B9
:102820000098089EB047431CE6D00137D1E700006E
:10283000F0B58BB006920A004332079305900492DC
:102840000A7E0C00109B6E2A00D18FE017D8632AF5
:102850002CD008D8002A00D199E0582A54D026005C
:102860004236327029E0642A01D0692AF7D1216802
:102870001A68080623D5111D1960156825E0732A0A
:1028800000D188E008D86F2A29D0702AE7D1202209
:1028900009680A43226003E0752A20D0782ADED135
:1028A00022007821453211706C4A30E00E001A681F
:1028B0004236111D196013683370012379E049060F
:1028C000D9D5111D19600023D55E002D03DA2D2303
:1028D000049A6D421370624B0A2703932FE020681D
:1028E0001968050603D5081D18600D6805E0400647
:1028F000F9D50D68081D1860ADB2594B0827039330
:102900006F2A18D00A2716E045310A70544A0392FC
:102910001A682168101D18601568080622D5CB07B3
:1029200002D52023194321601027002D03D1202335
:1029300022689A4322602300002243331A7063689E
:10294000A360002B5CDB0422216891432160002DF1
:1029500058D1049E002B64D02600039B42361B787E
:1029600033705EE04806DAD5ADB2D8E709681A6878
:10297000080605D5111D1960136862691A6006E022
:102980004906F7D5111D19601368A28A1A80002321
:10299000049E236154E01A68111D19601668002115
:1029A0006268300001F074F9002801D0801B60607B
:1029B000636823610023049A137041E023693200A5
:1029C00006990598079DA847431C43D02368002516
:1029D0009B070FD4099BE06898423DDA18003BE062
:1029E00022000123193206990598079EB047431C1F
:1029F00030D00135E368099A9B1A9D42F0DBE9E784
:102A0000002DA9D0049E28003900FFF703F9039B8D
:102A1000013E5B5C280033703900FFF775F8051E36
:102A2000F1D1082F09D12368DB0706D56368226935
:102A3000934202DC3023013E3370049B9B1B2361D5
:102A4000079B09AA00932100069B0598FFF782FEC9
:102A5000431CB3D1012040420BB0F0BD1B5E000807
:102A60000A5E00080EB417B5041E04D08369002B5B
:102A700001D1FFF709FA06AB059AA168200001937E
:102A800001F06EFD1EBC08BC03B018470FB40B4B21
:102A900013B51C68002C05D0A369002B02D12000BF
:102AA000FFF7F2F905AB049AA1682000019301F049
:102AB00057FD16BC08BC04B01847C04604000020EF
:102AC00070B505000E00002804D08369002B01D1E9
:102AD000FFF7DAF9AB69AC68002B02D12800FFF7E9
:102AE000D3F9244B9C420FD16C68A3891B0702D5F4
:102AF0002369002B20D12100280000F027F90028AD
:102B00001AD00120404270BD1B4B9C4201D1AC68E1
:102B1000EBE71A4B9C42E8D1EC68E6E7013B013653
:102B2000A360002B04DAA269934216DB0A2914D0B1
:102B300023685A1C226019703178A3680029EDD1EE
:102B4000013BA360002B0FDA22000A31280000F0BD
:102B500089F8431CD5D00A20D5E72200280000F0D0
:102B600081F8431CE8D1CCE70A2023685A1C226074
:102B70001870C8E7B45D0008D45D0008945D0008D3
:102B800010B5034B01001868FFF79AFF10BDC0464F
:102B900004000020002370B5064C050008002360E7
:102BA000FDF754FF431C03D12368002B00D02B609A
:102BB00070BDC0468C02002070B50C000E25495F28
:102BC00001F0F6FD002803DB636D1B18636570BD23
:102BD000A389024A1340A381F9E7C046FFEFFFFF34
:102BE00000207047F8B51F008B8905000C00160007
:102BF000DB0505D50E23C95E0022022300F0B4FFD9
:102C0000A389054A28001340A38132000E23E15E08
:102C10003B0000F087F8F8BDFFEFFFFF70B50C0038
:102C20000E25495F00F0A0FFA389421C03D1054A8D
:102C30001340A38170BD802252011343A3816065BC
:102C4000F8E7C046FFEFFFFF10B50E23C95E00F0A6
:102C5000F3F810BD0023C25C0133002AFBD1581EDB
:102C600070470000F8B505000E001400002804D0DD
:102C70008369002B01D1FFF707F9224B9C422DD12C
:102C80006C68A369A360A3891B0731D52369002B56
:102C90002ED023682269F7B2981A6369F6B2984277
:102CA00005DB21002800FFF761F8002826D1A36882
:102CB0000130013BA36023685A1C22601F706369C6
:102CC000984204D0A389DB071AD50A2E18D1210017
:102CD0002800FFF74BF8002812D00FE00A4B9C4267
:102CE00001D1AC68CDE7094B9C42CAD1EC68C8E77A
:102CF0002100280000F02AF80028CAD001267642D8
:102D00003000F8BDB45D0008D45D0008945D000893
:102D100010B5034B0A0001001868FFF7A3FF10BDB0
:102D20000400002070B50500080011000022064CC8
:102D300022601A00FDF700FF431C03D12368002B1B
:102D400000D02B6070BDC0468C020020364B70B5A1
:102D50001D6806000C00002D05D0AB69002B02D1C8
:102D60002800FFF791F8314B9C420FD16C680C237F
:102D7000E25E93B219072DD4D90611D4092301209C
:102D8000336037331343A381404270BD284B9C42CC
:102D900001D1AC68EBE7274B9C42E8D1EC68E6E751
:102DA0005B0713D5616B002908D023004433994297
:102DB00002D03000FFF73EF9002363632422A38989
:102DC0009343A38100236360236923600823A289BE
:102DD0001343A3812369002B0BD1A0218022A38957
:102DE000890092000B40934203D02100300000F094
:102DF000F7FE0123A289134011D00023A360636969
:102E00005B42A361002023698342BED10C23E25EB2
:102E10001306BAD540231343A3810138B5E79207BF
:102E200000D46369A360EDE704000020B45D0008EE
:102E3000D45D0008945D0008002370B5064C0500C1
:102E400008002360FDF751FD431C03D12368002BCC
:102E500000D02B6070BDC0468C020020F0B5036925
:102E60000C6989B00700059100269C426DDC0B00BF
:102E7000013C1433A50003935B190493030014333E
:102E800002935D19049B28681B68591C0193FEF787
:102E90003BFE0190B0422DD0039B02989C460696C3
:102EA000624608CA9446019A99B251431B0C534397
:102EB00089190A0C9B18079302881E0C069B89B27D
:102EC000D2180368521A190C6B469B8BCB1A11143B
:102ED0005B18191492B21B041A43049B069104C098
:102EE0006345DDD22B68002B04D1029B043DAB422D
:102EF0002ED33C610599380001F031F9002823DB1D
:102F00000025019B029801330399019308C90288A7
:102F100055199AB2AA1A05681B0C2D0CEB1A151438
:102F20005B191D1492B21B04134308C0049B8B420F
:102F3000ECD2029AA300D3181A68002A04D1029A8C
:102F4000043B9A4209D33C61019E300009B0F0BDB8
:102F50002B68002BCDD1013CC7E71A68002AF2D1BB
:102F6000013CECE7F0B516001F00446A9DB00490E8
:102F7000259D06960797002C08D1102000F074FEBE
:102F8000049B5862446084600460C460049B5B6A74
:102F9000196800290BD05A68012393404A608B605E
:102FA000049800F0C3FE0022049B5B6A1A60079B32
:102FB000002B1FDA01232B607B005B080793079C23
:102FC000B74B220019931A409A4216D1B54B249A56
:102FD0001360069B002B03D1240301D100F091FD67
:102FE000B14B269A0A93B14B002A01D000F08FFD15
:102FF00000F08FFD00232B60E1E7069E079F002273
:1030000000233000390001F05BFE051E0ED00123C5
:10301000249A1360A64B269A0A93002A01D100F045
:1030200078FDA44A26990A6000F073FD1AAB01935B
:103030001BAB009332003B00049801F07FF9630062
:1030400005905B0D00D17FE03A039B4C120B1443BB
:1030500021009A4A300018959E180022984B02F0E1
:103060006DFA984A984BFEF7B1F9984A984B01F0DF
:1030700055FE040030000D00FEF728FC954A964BE3
:10308000FEF7A4F902000B002000290001F046FE23
:1030900004000D0002F088FD0022039000232000B0
:1030A000290001F013FE00280ED00398FEF70EFC55
:1030B0000B0002002900200001F002FE030058422C
:1030C0005841039B1B1A039301231693039B162B52
:1030D0000FD88249DB00C91808684968069A079B1F
:1030E00001F008FE00284BD0039B013B0393002313
:1030F00016931A9B9E1B00230B933300013B0C93EA
:1031000004D501239B1B0B9300230C93039B002BE3
:1031100038DB039A0C9B944663440C9300230F9274
:103120000893229B0125092B00D991E0052B02DD94
:103130000025043B2293229B981E032800D991E08E
:1031400001F0A4FD828429761A9B1B9A9E18644B79
:10315000F218202A0FDD634B0698F318D84040235D
:103160009B1A9C40204302F053FD01235E4C013E1C
:103170000919189371E7202306989B1A9840F2E7E3
:103180001690B6E70B9B039A9B1A0B935342089336
:1031900000230F93C5E701230E93239B002B65DDCE
:1031A0001F000D93049A546A0022626004321100D9
:1031B000143199425FD96168049800F07FFD049B47
:1031C00020605B6A1B680A930E2F00D905E1002D71
:1031D00000D102E1069B079C14931594039B002BDE
:1031E00000DC85E01A000F213C4B0A40D2009B18FE
:1031F0005C681B6810931194039B02241D11EB065D
:103200000AD53A4B0D401A6A5B6A14981599FDF776
:10321000A9FD069007910134344E002D30D1109A4B
:10322000119B06980799FDF79DFD069007917AE09E
:103230000123239A0E939446039B63445F1C0D93D2
:103240003B1EAFDC0123ADE70023A5E70023F0E739
:1032500000230E952293013B00220D931F00133390
:1032600023929FE701230E93023BF5E701230D9381
:103270001F001A00F4E7616852000131616096E7AF
:1032800001231D4208D010981199E4183268736820
:10329000FEF79CF8109011916D100836BDE7C046FE
:1032A0000000F07F0F270000355E0008385E000840
:1032B000085E0008095E00080000F03F01FCFFFF07
:1032C0000000F83F61436F63A787D23FB3C8608BAC
:1032D000288AC63FFB799F501344D33F685E00089D
:1032E0003204000012040000000010FE405E0008DE
:1032F000039B0224002B16D0149815995D420F23CE
:10330000CA4A2B40DB00D3181A685B68FEF75EF8E8
:10331000002306900791C64E2D11002D00D08CE0A1
:10332000002B00D081E7169B002B00D191E0069A7C
:10333000079B10921193109811990022BD4B01F038
:10334000C5FC002800D184E0002F00D181E00D9B56
:10335000002B3EDD10981199039B00225E1EB64B98
:10336000FEF734F8069007910D9D01342000FEF71A
:10337000ADFA069A079BFEF729F80022AF4B01F041
:10338000CDFC12901391129B139CAD4A1093119493
:10339000139B9C181194002D5ED10698079900226A
:1033A000A84B02F0CBF8109A23000690079101F089
:1033B000A1FC002800D001E3A3481399844661448E
:1033C0000B0006980799109A01F080FC002800D0A5
:1033D000E8E2149B159C069307941B9B002B00DAD4
:1033E00057E1039A0E2A00DD53E1904BD2009B185F
:1033F0005C681B6808930994239B002B00DBCEE0DC
:10340000002F00DDCBE000D0CFE208980999002220
:103410008C4BFDF7DBFF069A079B01F075FC3E0025
:103420000897002800D0A4E20A9B0A9A5D1C312369
:103430001370039B013303939FE20122154205D0D1
:10344000A41832687368FDF7C1FF01236D100836B8
:1034500063E7039E3D0089E70A9A691E5219179295
:103460000E9A724BC900002A4AD05B181A685B6832
:1034700000207649FDF776FC109A119B02F05EF869
:103480000A9B1090119112930698079902F08CFBF9
:103490000400FEF71BFA02000B000698079902F0E1
:1034A0004DF8129B30345D1C1C70109A119B0690D5
:1034B000079101F00BFC002865D1069A079B0020BC
:1034C0005C4902F03BF8109A119B01F0FFFB0028C9
:1034D00000D0BEE0179B9D4200D17AE71098119969
:1034E0000022554BFDF772FF0022109011910698B3
:1034F0000799514BFDF76AFF129506900791C3E7B4
:10350000591808684968109A119BFDF75FFF1090E1
:1035100011910A9C179D0698079902F045FB12909D
:10352000FEF7D4F902000B000698079902F006F89E
:10353000129B0690079130332370179B01340022B1
:10354000A34224D1414B1098119901F0E7FB0200EE
:103550000B000698079901F0CDFB002800D078E019
:10356000109A119B0020394901F0E8FF02000B007E
:103570000698079901F0AAFB002800D129E76B1EE5
:103580001A78302A01D003963FE01D00F7E706982D
:103590000799294BFDF71AFF06900791BBE70A9E92
:1035A000089A099B06980799FDF7DCFB02F0FCFAE4
:1035B0000400FEF78BF9089A099BFDF707FF0B0043
:1035C00002000698079901F0B9FF230030333370E9
:1035D0000A9B751CEB1A9F424CD102000B0001F0B4
:1035E0009DFB06000F0002000B000898099901F0EE
:1035F0006DFB00282CD10898099932003B0001F09E
:103600005FFB002801D0E30722D40599049800F05D
:103610008DFB00232B70039B249A01331360269BA0
:10362000002B00D175E21D6073E2C046685E0008A1
:10363000405E00080000F03F0000244000001C40F5
:103640000000C0FC000014400000C07C0000E03F0F
:10365000039E6B1E1A78392A06D10A9A9A4207D11C
:1036600030231370130001361A7801321A708AE77A
:103670001D00EEE70022CF4BFDF7A8FE002200233D
:10368000069007912E0001F01BFB002800D187E770
:10369000BBE70E9A002A00D187E0229A012A6EDC4D
:1036A000189A002A67D0C44A9B18089D0B9C0B9A55
:1036B0000121D2180B920C9A0498D3180C9300F0A5
:1036C00012FC0600002C0EDD0C9B002B0BDD0C9A6F
:1036D0002300944200DD13000B9AE41AD21A0B92D5
:1036E0000C9AD31A0C93089B002B1ED00E9B002B18
:1036F0005FD0002D11DD31002A00049800F08CFC11
:10370000059A01000600049800F0F6FB0599109058
:10371000049800F00BFB109B0593089B5A1B04D0E8
:103720000599049800F078FC05900121049800F0B8
:10373000DAFB0F9B0890002B3DDD1A000100049876
:1037400000F06AFC229B08900025012B3BDC002541
:10375000069BAB4233D1079B1B03AB422FD1199B76
:10376000079A13422BD00B9B013501330B930C9B13
:1037700001330C9323E036231A9A9B1A95E7089B92
:103780007D1EAB4206DB5D1B002F0BDA0B9BDC1BA7
:1037900000238CE7089B0895EA1A0F9B00259B18CD
:1037A0000F93F1E70B9C3B0081E7089D0B9C0E9E5D
:1037B00088E7089AB4E7229B0025012BC7DD0F9B01
:1037C0000120002B0BD0089B089A1B690F93033331
:1037D0009B00D318586800F03DFB2023181A0C9B5F
:1037E000C0181F23184000D1ABE001331B1A042B73
:1037F00000DC9BE01C23181A0B9B24181B180B934E
:103800000C9B1B180C930B9B002B05DD1A000599D4
:10381000049800F053FC05900C9B002B05DD1A006A
:103820000899049800F04AFC0890169B002B00D1E0
:1038300089E00899059800F092FC002800DB82E0FE
:10384000039B0A22013B039305990023049800F08F
:1038500086FA0E9B0590002B00D15DE1002331001C
:103860000A22049800F07BFA0D9B0600002B02DC74
:10387000229B022B6DDC002C05DD31002200049818
:1038800000F01CFC06003000002D11D07168049877
:1038900000F014FA3100040033690C319A1C9200D4
:1038A0000C3000F000FA01222100049800F006FC20
:1038B0000D9F0A9B013F0B93DB19370006000F9306
:1038C00008990598FFF7CAFA39000D900400059889
:1038D00000F045FC32000E900899049800F058FC66
:1038E00001230C93C36830340500002B04D1010080
:1038F000059800F034FC0C902900049800F016FAAA
:103900000C9B229A134300D089E0069A013313429C
:1039100000D084E0392C00D1A3E00E9B002B01DD08
:103920000D9C31340B9B5D1C1C7027E0042B00D1D7
:1039300069E70B9A1C33D2180B920C9AE418D3182F
:1039400060E70300F5E7002F3CDC229B022B39DD0A
:103950000D970D9B002B0CD108990522049800F0BF
:10396000FEF908900100059800F0F9FB002800DD41
:103970005AE5239B0A9DDB4303930027089904988B
:1039800000F0D4F9002E00D13FE6002F05D0B74259
:1039900003D03900049800F0C9F93100049800F010
:1039A000C5F932E608952E00E3E7002308931E00D0
:1039B000DFE7C0460000244033040000039608956A
:1039C0002E0031E50E9B0D97002B00D053E70A9D8A
:1039D00008990598FFF742FA0A9B30300D9A287033
:1039E00001350400EB1A9A4278DC151E00DC012533
:1039F00000270A9B5D1905990122049800F05EFBDF
:103A00000899059000F0ABFB00282FDC01D1E307FB
:103A10002CD46B1E1A78302AB0D11D00F9E70E9B0A
:103A2000002B07DB1D00229B1D4326D10123069A94
:103A3000134222D10C9B002B00DC73E70599012275
:103A4000049800F03BFB0899059000F088FB0028E3
:103A500004DC00D066E7E30700D463E7392C00D02C
:103A60005EE70B9B0B9A5D1C392313706B1E1A7853
:103A7000392A3BD001321A7080E70B9B01330D933A
:103A80000C9B002B05DD392CEBD00D9D01340B9BDD
:103A90004AE70B9B0F9A0D9D1C709342ABD00023FD
:103AA0000A220599049800F05AF9002305900A2289
:103AB00039000498B74206D100F051F9070006001A
:103AC0000D9B0B93FCE600F04AF931000700002340
:103AD0000A22049800F043F90600F1E700230A22C5
:103AE0000599049800F03BF9059071E70A9A9A420B
:103AF00005D1039B01330393312313703EE71D006F
:103B0000B4E70A4B269A0A93094B002A01D0269A59
:103B100013600A981DB0F0BD0D9B002B00DD56E729
:103B2000229B022B00DC52E713E7C0462C5E000804
:103B3000345E0008F0307047034B1B68186A002899
:103B400000D10248F03070470400002068000020D7
:103B5000034B1B68186A002800D10248F0307047F8
:103B6000040000206800002070B505000800110066
:103B70000022064C22601A00FCF712FF431C03D1FE
:103B80002368002B00D02B6070BDC0468C02002043
:103B900070B50E001D000E23C95E90B01400002900
:103BA00007DA00232B60B3891B0611D48023DB00C6
:103BB0000FE001AA00F010FE0028F2DBF022029BC9
:103BC00012021340054A9B185A4253412B60EDE7FD
:103BD00040230020236010B070BDC04600E0FFFF0E
:103BE000F7B502268B8905000C00334206D023006E
:103BF00047332360236101236361F7BD01AB6A464C
:103C0000FFF7C6FF009907002800FEF75DFA0028BD
:103C100008D10C22A35E9A05EFD4032293431E43DE
:103C2000A681E4E70F4BAB628023A2892060134397
:103C3000A381009B20616361019B002B0DD00E23AB
:103C4000E15E280000F03CFF002806D00322A38993
:103C500093431A0001231343A381A0893843A08111
:103C6000CBE7C046F11D000810B5034B01001868F2
:103C7000FEF72AFA10BDC0460400002010B5034B21
:103C800001001868FEF7D6F910BDC04604000020F8
:103C9000C9B28218904201D10020704703788B424C
:103CA000FBD00130F6E7002310B59A4200D110BDD9
:103CB000CC5CC4540133F8E77047704770B5466A6E
:103CC00004000D00002E07D11020FFF7CDFF606229
:103CD000466086600660C660666AF368002B13D093
:103CE000636AAA00DB689B181868002818D10121B4
:103CF0000E00AE40721D9200200000F0EDFB002887
:103D00000CD0456086600DE021220421200000F0E7
:103D1000E3FB636AF060DB68002BE1D1002070BD3B
:103D200002681A6000230361C360F8E770B5446A53
:103D300006000D00002C07D11020FFF795FF7062E0
:103D4000446084600460C460002D07D0736A6A68B0
:103D5000DB6892009B181A682A601D6070BDF7B579
:103D60001E0014239C4607000C0000200D698C44A3
:103D7000634619881B6851431B0C534389190E0C69
:103D80009B1989B21E0C1B045B186146013008C1E7
:103D90008C468542ECDC002E1BD0A3689D4212DBD2
:103DA00063683800591CFFF789FF210023690190DF
:103DB0009A1C92000C310C30FFF775FF210038007F
:103DC000FFF7B4FF019C2B1D9B00E31801355E60DB
:103DD00025612000FEBDF7B5060018000C00083074
:103DE000092101931500FCF7D1FE01230021834234
:103DF00020DB3000FFF762FF089B43610123036172
:103E0000092D1ADD230009331F00009364193B7844
:103E10000100303B0A2230000137FFF7A0FFA74224
:103E2000F5D12C00009B083C1C192F00019B9F42E0
:103E300006DBFEBD5B000131D9E70A340925F4E752
:103E4000631BDB5D0100303B0A223000FFF787FF78
:103E50000137EBE70300020C0020824201D11B0472
:103E600010301A0E01D108301B021A0F01D1043094
:103E70001B019A0F01D102309B00002B03DB0130A4
:103E80005B0000D4202070470722036810B50100B2
:103E90001A400DD001240020234205D102300342F4
:103EA00003D0E34020000B6010BD9B080B60FBE7D4
:103EB0009CB21000002C01D110201B0CDAB2002A99
:103EC00001D108301B0A1A0701D104301B099A07D7
:103ED00001D102309B08DA07E8D45B0801D0013039
:103EE000E4E72020E0E710B50C000121FFF7E6FE33
:103EF00001234461036110BDF0B50B69150012691F
:103F000089B00C00934201DA2C000D0027692E695C
:103F1000A268BB1961680193934200DD0131FFF78C
:103F2000CDFE030014330093009ABB1994469B0006
:103F30009C4413000022049063451CD32A001434CF
:103F4000BF00E3191432B600059393190294069347
:103F5000069B9A4211D3019B002B06DD04235B4292
:103F60009C4463461B68002B51D0049B019A1800A7
:103F70001A6109B0F0BD04C3DEE71488002C1ED01E
:103F80000026009D029F01CF079508CD039383B2C1
:103F9000634319006B46000C9B896043CB1803995F
:103FA0009B19090C4118180C09180E0C9BB2090436
:103FB0000B4307990B60059BBB42E4D82E60136846
:103FC0001B0C03931ED00026009B029C1B680098CC
:103FD00007002188039D9BB2694320C82D0C491915
:103FE0008E1931040B433B6008CC03991B0C4B43E7
:103FF0007968360C89B25B1805999B191E0CA14291
:10400000E6D80360009B043204330093A0E7019BD1
:10401000013B01939FE700000323F7B51340050020
:104020000E001400002B08D02249013B9A00525880
:1040300000233100FFF793FE0600A310019336D052
:104040006C6A002C07D11020FFF70EFE68624460F6
:1040500084600460C4606F6ABC68002C07D1164994
:104060002800FFF740FF00230400B860036001222E
:10407000019B13420AD0310022002800FFF73CFFC9
:10408000070031002800FFF751FE3E00019B5B1046
:1040900001930CD02068002807D1220021002800BD
:1040A000FFF72AFF0023206003600400DFE73000F1
:1040B000FEBDC046585F000871020000F0B50D005B
:1040C00017002B69541185B0E31802930133019353
:1040D0004968AB680390019A934234DB0398FFF779
:1040E000EDFD00230200060019001432A3422DDB6F
:1040F000E343DB171C402B001F21A40014192A697D
:10410000143392009A180F4024D00131C91B8C46F9
:1041100000211868B84001436046216002CB043496
:10412000C1409A42F5D82160002902D0029B023397
:104130000193019B0398013B33612900FFF7F6FDD2
:10414000300005B0F0BD01315B00C4E798001150AC
:104150000133CBE702CB02C49A42FBD8E9E70A69F4
:10416000036930B59B1A0ED19200143014318418B3
:104170008918043C043922680D68AA4205D0AA4275
:10418000924101231343180030BDA042F1D3FAE756
:10419000F0B50D0085B00700110028001400FFF7EE
:1041A000DEFF061E08D101003800FFF787FD01235E
:1041B0004661036105B0F0BD01230193002804DBD3
:1041C00023002C001D000023019361683800FFF7D5
:1041D00075FD2F000022019B2669C3601434B300D3
:1041E000E31802932B6914379B00FB180393030019
:1041F0009446143320CC04CF0192AAB294446A4668
:10420000614692882D0C8A1A0199090C691A1514B5
:1042100049190D1492B209040A431A60039AAC4674
:104220000433BA42E6D802991A008C4205D3043A04
:104230001368002B0ED00661BCE704CC91B2614438
:104240000D14120C5219151489B212040A43AC460B
:1042500004C3E8E7013EEAE70B00104910B5194036
:104260000F4BC918002904DD00220B0010001900B3
:1042700010BD4942091500220023132904DC8020C7
:10428000000308410300F1E7143901201E2902DC74
:104290001F24611A88400200E8E7C0460000F07F52
:1042A0000000C0FCF7B50600036914369B00F31844
:1042B0001D1F2C680F0020000193FFF7CBFD20236A
:1042C0001B1A3B601C490A2816DC0B2327001B1A0B
:1042D000DF4039439C460B000021AE4202D20199D7
:1042E00008390968153084406046C1400C432200FB
:1042F0001000190003B0F0BD0027AE4202D2019DAC
:10430000083D2F680B388446031E12D09C402020A5
:1043100021433C00C01AC44021430B000021B54298
:1043200001D9043D29686446C140A7400F433A00C3
:10433000DEE721430B00FAE70000F03FF7B51D0070
:104340000121089F1400FFF7B9FC2B036D00060044
:104350001B0B6D0D24D10193002C27D068460094CF
:10436000FFF792FD009C00281ED0019B20211A001F
:10437000091A8A40C340224372610193019CB461CF
:10438000631E9C4101343461002D18D0124BED188E
:1043900035232D183D60181A099B18603000FEBDAA
:1043A000802252031343D6E77461E7E701A8FFF7C1
:1043B0006BFD0124019B346173612030E4E7074BFE
:1043C000C018074B3860E3189B00F3185869FFF7D3
:1043D00041FD6401201ADFE7CDFBFFFFCEFBFFFFAD
:1043E000FFFFFF3FF0B585B00F0002A90600FFF701
:1043F00059FF04000D00380003A900940195FFF750
:1044000051FF36693F690200F71B7E01B446039FE6
:10441000029E0B00F61B66443705002E07DD791956
:10442000019100980199FCF79DFC05B0F0BDCB1BF4
:10443000F7E7000010B50400172805DC074BC4009F
:104440001C192068616810BD002005490022054B39
:10445000013CFCF7BBFF002CF8D1F4E7685E0008D4
:104460000000F03F000024401300013910B549114D
:104470001269013189001433920041189A189A4246
:1044800003D80023814203D810BD10CB10C0F6E73B
:1044900008C0F7E70200006910B514324B119842CA
:1044A00012DB0BDD1F20014008D09800845820004B
:1044B000C8408840010001208C4204D19B00D318E1
:1044C000934203D8002010BD0300F7E7043B1968AE
:1044D0000029F5D00120F6E74A4370B51100140019
:1044E000FDF7F2FD051E03D022000021FDF799FD26
:1044F000280070BD936810B5013B9360002B05DA6E
:104500009469A34208DBCBB20A2B05D01368581C70
:1045100010601970C8B210BDFEF7A4FBFBE7F8B538
:1045200006000F001400D518AC4201D1002007E0AE
:1045300021783A003000FFF7DDFF0134431CF3D14E
:10454000F8BD936810B51400002B02D11800536019
:1045500010BD00F053F90023A3606360F8E700008A
:10456000F0B59FB006000F0014000593002804D09A
:104570008369002B01D1FDF787FC7F4B9F425CD103
:104580007768BB891B0762D53B69002B5FD000238E
:1045900006AD6B6120336B761033AB760294029CD0
:1045A0002378002B5DD1029BE31A04930DD0049B6A
:1045B000029A39003000FFF7B2FF431C00D1CCE073
:1045C0006A69049B944663446B612378002B00D195
:1045D000C3E00122002352426A6002A954325218F9
:1045E00001342B60EB60AB601370AB652178052262
:1045F0006248FFF74DFB631C9C46002835D12968B3
:10460000CB0604D5532302AA20309B1818700B0741
:1046100004D553232B2002AA9B18187023782A2B29
:104620002CD000200A21099B2278303A092A00D890
:104630006BE000282AD0099328E0514B9F4201D11A
:10464000B7689EE74F4B9F429BD1F76899E73900C7
:104650003000FEF77BFB002899D0012040421FB0BC
:10466000F0BD252B9FD001349AE7444B2968C01A2E
:10467000012383400B432B606446B7E7059B181D5D
:104680001B680590002B3ADB0993644623782E2B98
:104690000BD16378621C2A2B3FD1059B02341A1D73
:1046A0001B680592002B35DB0793217803223648DF
:1046B000FFF7EEFA002807D0334B2A68C01A4023D0
:1046C000834013432B6001342178631C06222F485A
:1046D00002932976FFF7DCFA002844D02C4B002BFC
:1046E0002FD12968059B0722C90528D59B1893431C
:1046F000083305936B69039A9B186B614FE75B4224
:10470000EB6002230B432B60BFE74B4301349B1844
:10471000012089E701235B42C6E7002314000A2039
:104720001A006B6021783039092903D9002BBCD0DD
:104730000792BAE74243013452180123F2E70733E4
:10474000D5E705AB00933A00124B29003000FDF786
:10475000B5FD0390039B0133CCD1BB895B0600D52B
:104760007BE70B987BE705AB00933A00094B2900E8
:104770003000FEF75DF8ECE7B45D0008645F000808
:10478000D45D0008945D00086A5F00086E5F000851
:10479000BD2200081F45000810B513000A000100E3
:1047A00002480068FFF7DCFE10BDC0460400002090
:1047B00070B50500080011000022064C22601A00A6
:1047C000FCF77CF9431C03D12368002B00D02B603D
:1047D00070BDC0468C020020002370B5064C050059
:1047E000080011002360FCF7A7F8431C03D12368DD
:1047F000002B00D02B6070BD8C020020F0B59368B8
:1048000087B002900C001700002B02D1002007B0E7
:10481000F0BD8B891B0723D50B69002B20D0022507
:104820003B680193A3891D402BD000231D000093FA
:10483000002D1ED09F4A2B00954200D91300009AEC
:10484000216A0298A66AB047002800DC92E0009B2B
:104850002D1A1B180093BB68181AB860E8D1D5E769
:1048600021000298FEF772FA0028D8D001204042B9
:10487000CDE7019B1B680093019B5D6808330193A2
:10488000D6E70122134047D02800039500950592F2
:10489000009B002B00D1E9E000280BD11A000A216F
:1048A0000398FFF7F5F9009B5D1C002802D0039BDD
:1048B0000130C51A009B04959D4200D904932068DD
:1048C00022696369904200D8DBE0A2689E18049ACE
:1048D000B24200DCD5E00399320000F071F92368A0
:1048E00021009B1923600298FDF740FA002841D16E
:1048F000AD1B059805D121000298FDF737FA002875
:1049000038D1039B9B190393009B9B1B0093BB68AF
:104910009E1BBE60BCD179E703930093009B002BE4
:104920002DD08023A2899B00A5681A426DD0009BE0
:10493000AB4243D39023DB001A423CD003262169CB
:10494000236800985B1A049363695E43F30F9E1912
:10495000049B761001331B18B34200D91E00530587
:1049600044D531000298FDF7AFFB051E11D10C2391
:10497000029A13604023A2891343A38176E7019B27
:104980001B680393019B5B680093019B08330193B1
:10499000C4E7049A2169FFF786F9A389464A1A40B9
:1049A00080231343A381049B2561ED182560666174
:1049B000009DF61AA660009BAB4200D2009D2A0023
:1049C0000399206800F0FCF8A3685B1BA3602368D0
:1049D0005D192560009D039B5B190393009B5B1B86
:1049E0000093BB685D1BBD6098D10FE73200029851
:1049F00000F0F8F8051ED6D121690298FDF71AFBE0
:104A00008022A3899343A381B1E720682369984258
:104A100003D86669009BB34216D2009B9D4200D921
:104A20001D002A00039900F0CBF8A36822685B1BE5
:104A30005219A3602260002BCDD121000298FDF70E
:104A400095F90028C7D095E700981C4B984200D9EB
:104A500018003100FCF79AF83300A56A4343039A23
:104A6000216A0298A847051EB5DC83E7019B002058
:104A70001B680393019B5B680093019B08330193C0
:104A800006E7049A9A4208DBA66A039A216A02980A
:104A9000B047061E00DD2BE76CE7049A039900F08F
:104AA0008FF8049AA36816009B1AA36023689B18CA
:104AB00023601DE700FCFF7F7FFBFFFFFFFFFF7F01
:104AC000002370B5064C050008002360FBF7AAFF21
:104AD000431C03D12368002B00D02B6070BDC0465F
:104AE0008C02002070B5141E0B4D12D00B49100023
:104AF00000F09EF800280CD02900200000F098F863
:104B0000002806D00649200000F092F800239842C1
:104B100000D12B00180070BD755F0008775F00089A
:104B2000695F0008044B1B681B6A002B00D1034B14
:104B300094225200985C7047040000206800002016
:104B4000EC30006870470000044B1B681B6A002BA8
:104B500000D1034BEC3318687047C04604000020B6
:104B60006800002010B5034B0A0001001868FFF729
:104B7000B9FF10BD0400002037B5064C2468246A34
:104B8000002C00D1044C069DE43400952468A04715
:104B90003EBDC046040000206800002082B000290D
:104BA00000D101A9101E06D0002B06D013780B608F
:104BB0001078431E984102B0704702204042FAE745
:104BC00010B5884202D98B18984208D300239A4224
:104BD00007D0CC5CC4540133F9E78B5C8354013AB1
:104BE000FBD210BDF8B507000D001600002905D155
:104BF0001100FDF769FA04002000F8BD002A03D176
:104C0000FDF718FA3400F7E700F038F82C00864278
:104C1000F2D931003800FDF757FA041EECD0290014
:104C20003200FFF740F829003800FDF703FAE3E708
:104C300002780B78002A03D0013001319A42F7D074
:104C4000D01A704710B5054C2468246A002C00D196
:104C5000034CE0342468A04710BDC0460400002087
:104C6000680000200B1E04D0FF2A04D98A230360A9
:104C70008B3B180070470A700123FAE70B1F1B6873
:104C8000181F002B01DA0B58C018704702B4714688
:104C900049084900095C49008E4402BC7047C0467F
:104CA0008446101C62468C46191C634600E0C046D0
:104CB0001FB500F0E1FB002801D40021C8421FBD50
:104CC00010B500F03BFB4042013010BD10B500F0C4
:104CD000D3FB002801DB002010BD012010BDC04621
:104CE00010B500F0C9FB002801DD002010BD012037
:104CF00010BDC04610B500F05BFB002801DC0020B1
:104D000010BD012010BDC04610B500F051FB0028B9
:104D100001DA002010BD012010BDC046F8B545469F
:104D2000DE4657464E460C03E0B54E00C90F884696
:104D30000D00610A440F0C43C70019035800DB0F34
:104D40009B464B0A510F0B43760D400D1900D200C4
:104D5000D84500D1AEE0351A002D00DCF6E0002881
:104D60000FD1134300D1DBE06B1E002B00D037E1E5
:104D7000BA1A9742BF41641A7F42E41B012617000A
:104D800024E0C64B9E424DD080231B041943382D8E
:104D900000DD07E11F2D00DD38E12020431B9A468E
:104DA0000B0050468340994613004846EB40184399
:104DB000030050468240501E8241E9401A43BA1A0D
:104DC000611A9742A441170064420C1B230262D56A
:104DD0006402650A002D00D1DFE02800FCF71EFF09
:104DE0000300083B1F2B00DDD2E020223C00D21A3A
:104DF0009D40D4409F4025439E4200DDC4E09E1B61
:104E0000731C1F2B00DDF1E0202238002900D21A8C
:104E1000D840914097402C000143781E8741DC40E8
:104E200000260F437B0709D00F233B40042B05D0FE
:104E30003B1DBB42BF417F42E4191F0023022CD51A
:104E4000964B01369E4200D19AE04546944BFF08AE
:104E50001C406007760564020743240B760D002191
:104E60002403230B0C0D8F4A24051C4314403305E7
:104E700023435B00ED075B082B43380019003CBC63
:104E800090469946A246AB46F8BD6446044300D11D
:104E900011E2040067467B07C6D145466007FF085C
:104EA0000743E4087D4B9E4230D024037605240B53
:104EB000760DD4E7331A9A46002B78DD002831D0DE
:104EC00076488642AED08020000401435346382BFA
:104ED00000DCE9E00A43511E8A410021D219BA429E
:104EE000BF4109197C4217000C192302D3D56B4B23
:104EF00001369E4200D13AE10120694B1C407B08FB
:104F000007401F43E007074364088BE723003B4348
:104F100000D1CBE18022120314432403240B9EE72B
:104F20002E007FE70800104300D1B4E0581E00288F
:104F300000D0DEE0BA18BA429B4164185B42E41824
:104F4000170001262302A6D50226D5E7002D6ED133
:104F5000701C4005400D012800DCF9E0B81A8446B9
:104F600087428041E51A40422D1A280200D489E088
:104F7000D71BBA4292411C1B5242A51AD84629E7B8
:104F80004546002400276AE7454CF61A2C4049E7BD
:104F90003D002838854000272EE73800FCF73EFE0C
:104FA00020301DE70A43511E8A41002107E7002BEC
:104FB00000D0F3E0701C43055B0D012B00DCADE07D
:104FC000364B984200D1D1E0BA18BA42BF416418BA
:104FD0007F42E419E707520817436408060021E7F7
:104FE0002E48854200D193E01D00D0E629001F3EE7
:104FF000F140202B00D18DE04022D31A9D402F4359
:105000007D1EAF4100240F43002644E72B0008001B
:10501000203BD8400300202D00D17DE04020451BDF
:10502000A9400A43511E8A4100211A43C7E6002EB7
:1050300050D01A4EB04257D080266B429946360463
:1050400034434B46382B00DDD6E01F2B00DD35E125
:105050002026F51A2600AE40B2463E00DE40AC46A1
:10506000350056462E436546AF407D1EAF41DC40BD
:105070003743D71BBA4292410C1B5242A41A060076
:10508000D846A3E6644667462C4300D0A2E6002536
:105090000026002706E71E00C4E6C046FF07000002
:1050A000FFFF7FFFFFFF0F801F2B63DC2020C31A51
:1050B000080098409C46834653461000D8400300A1
:1050C0005846184363469A40531E9A41534602433A
:1050D000D94003E726003E4306D0EB439946002B18
:1050E000C7D0944EB042ACD10C0017000600D84691
:1050F00098E6904B9A450BD08246E7E6002800D010
:105100009EE01800104300D1E9E01C001700D846CB
:10511000884E87E6002572E7002182E723003B43A3
:10512000002E00D0ABE0002B00D1E7E00B001343D2
:1051300000D177E6BA18BA42BF4164187F42E41939
:10514000230200D4F2E07C4B17001C40060069E605
:1051500020003843002ED1D100285BD11C0014431D
:1051600000D1A8E01C001700D8465BE6060000242A
:10517000002797E650460B002038C3409946534617
:10518000202B00D195E0402350461B1A99400A433A
:10519000511E8A414B4600211A439FE6002E30D112
:1051A00026003E4367D0DB439A46002B1CD0614E5D
:1051B000B04260D05346382B00DD96E01F2B00DD57
:1051C0009FE02026F31A26009E409C46B346534695
:1051D0003E00DE4033005E461E4363469F407B1E1A
:1051E0009F415346DC403743BF18974292416418B1
:1051F0005242A418060078E627437C1EA7410024EB
:1052000037E74C4EB04236D080265B4236049A4691
:105210003443CFE71800104300D103E6B81A8446A0
:105220006745AD41E01A6D42401B050200D42CE6F3
:10523000D71BBA4292411C1B5242A41AD846F1E530
:105240001800104300D163E7F80867070743802080
:10525000E4080003044208D0DD08054205D1D20865
:10526000590711430F002C00D8467B0FE4001C4364
:10527000FF00304ED6E50C0017000600D2E5002BEB
:1052800038D00B00134300D142E7F8086707074303
:105290008020E40800030442E7D0CB080342E4D1B5
:1052A000D208490711430F001C00DEE70027002445
:1052B000D5E500216BE700250027F3E54E462500E4
:1052C000203EF5404B462E00202B2DD04025ED1AD8
:1052D000AC4027437C1EA74100243743C9E6802405
:1052E00000252403134E0027DCE527437C1EA7413D
:1052F000002479E70C0017000E4E93E50C00170010
:1053000090E556462300203EF34099465346202B15
:105310000ED0402356469B1B9C4027437C1EA74132
:105320004B4600241F435FE70024D2E71700B2E595
:105330000024F2E7FF070000FFFF7FFFF0B54F46B4
:105340004646D6465C00C0B51F03DB0F9A46174B96
:105350000E034D0084468046360B6D0DC90F9146F5
:105360003F0B640D01209D4208D09C4201D0A54214
:105370000BD01CBC90469946A246F0BD6346334311
:10538000F7D1AC42F5D13A43F3D10120BE42F0D17E
:10539000C845EED1514507D0002DEAD163461E43E2
:1053A0003000461EB041E4E70020E2E7FF070000BE
:1053B000F0B54546DE4657464E46E0B51F033D0B69
:1053C0002C4F0E034C00AB465D008446360B640D3B
:1053D000C90F90466D0DDB0FBC422AD0254FBD4250
:1053E0002DD0002C0FD13043070081467842784100
:1053F000C0B2002D17D15F463A4314D14B4600206E
:10540000002B0AD006E0002D02D15846024301D0FD
:10541000994218D04842012108433CBC9046994625
:10542000A246AB46F0BD0028F2D00120013B184354
:10543000F3E737000743D1D002204042EDE75F4653
:105440001743CED0F8E7AC42E4DC03DA481E012172
:105450000843E2E75E45DDD806D000205E45DCD299
:105460000123481E1843D8E7C445D3D80020C445BB
:10547000F6D3D2E7FF070000F0B54E464546DE46BC
:1054800057465C00E0B51F03DB0F99462A4B0E031D
:105490004D00C90F8446360B6D0D8B4690463F0B71
:1054A000640D9D4220D0244B9C4222D0002D12D16D
:1054B000304343424341DBB2002C1FD0002B0CD0C1
:1054C0004B460120013B034318003CBC90469946E3
:1054D000A246AB46F0BD002C16D0CB4517D05B469C
:1054E000594201230B43EFE7310002230143EBD183
:1054F000D9E7390002231143E6D1D7E73A43DDD19A
:1055000000230028E0D0EAE73A43E6D1E7E7A542E6
:10551000E5DC05DBBE42E2D807D00023BE42D3D291
:105520005946012301390B43CEE7C445D7D80023A0
:10553000C445F5D3C8E7C046FF070000F0B54646AE
:10554000D6464F460C03C0B5CD0F4E00610A440F3E
:105550000C43C1005800400D84468A460F001903D1
:10556000500F490A0143C648760DA846DB0FD2000A
:10557000844500D1D8E001204340AB4200D1A6E0F1
:105580006046351A002D00DC05E1002810D10B0023
:10559000134300D1D7E06B1E002B00D04BE15346E4
:1055A0009F1ABA458041641A4042241A01261EE01F
:1055B000B34B9E4248D080231B041943382D00DD95
:1055C00019E11F2D00DD4CE120230F005B1B1000B3
:1055D0009A409F40E840531E9A41E94007431743D1
:1055E0005346DF1B611ABA45A44164420C1B2302D7
:1055F00000D4C5E06402650A002D00D1F6E0280061
:10560000FCF70CFB0300083B1F2B00DDE9E0202228
:105610003C00D21A9D40D4409F4025439E4200DD6D
:10562000DBE09E1B731C1F2B00DD0AE120223800EB
:10563000D21A290097402C009140D8407A1E9741F9
:10564000DC40002601430F437B0709D00F233B407A
:10565000042B05D03B1DBB42BF417F42E4191F0014
:10566000230225D5864B01369E4200D1AFE0854B03
:1056700001251C4043466207FF0864027605174374
:10568000240B760D1D4000212403230B0C0D7E4AB4
:1056900024051C431440330523435B00ED075B08DE
:1056A0002B43380019001CBC90469946A246F0BD19
:1056B000012543466207FF081743E4081D40704B6D
:1056C0009E4236D024037605240B760DDBE7634635
:1056D000F31A002B00DC94E06046002835D06848BF
:1056E0008642B1D080273F043943382B00DCFDE0EF
:1056F0000A43170000217A1E9741574457458041BD
:10570000091944420C1923023AD55D4B01369E42D9
:1057100000D14BE101225B4B1C407B0817401F432B
:10572000E207174364088FE70800104300D024E71E
:1057300021E723003B4300D1B9E180221203144347
:105740002403240B9FE72E007EE70800104300D1BE
:10575000CAE0581E8446002800D0E7E05244524573
:10576000804164184042241817000126230207D5FF
:105770000226CFE764462C4300D1B3E12C006746F4
:105780007B0700D062E76307FF081F4301254346FC
:10579000E4081D4093E7002D78D1751C6D056D0D53
:1057A000012D00DCF2E05046801A8245BF41651AA7
:1057B0007F42ED1B8446280200D48CE05046171A25
:1057C000BA4292410C1B5542651B984614E70125CD
:1057D000434600241D40002755E72A4CF61A2C406A
:1057E00032E73D0028388540002717E73800FCF7EE
:1057F00015FA203006E70A43170000217A1E974168
:10580000EEE6002B00D0E5E0731C9C465B055B0DCB
:10581000012B00DC9FE01A4B9C4500D1C5E05244AF
:1058200052458041641840422418E7075208174344
:105830006408664608E71248854200D185E01D00ED
:10584000BCE629001F3EF140202B00D17FE0402222
:10585000D31A9D402F437D1EAF4100240F430026E5
:105860008EE72B000F00203BDF40202D71D040231E
:105870005D1BA9400A43511E8A4100211743AFE630
:10588000FF070000FFFF7FFFFFFF0F80002E3ED0CD
:10589000B34EB44545D0802636046D423443382D8E
:1058A00000DDA8E01F2D00DD1FE120262700504667
:1058B000761BB740E84007435046B040461EB04113
:1058C000EC403843171ABA4292410C1B5242A41AB8
:1058D000664698468BE6644667462C4300D08BE6C6
:1058E000002500260027EAE61E00ADE61F2B60DC3F
:1058F0002027F81A0F00844687401000D84007433D
:1059000060468240501E8241D9401743F5E626008A
:105910005046064305D0ED43002DD3D0904EB445FC
:10592000BDD10C001700664698468DE68C48834230
:105930000BD06346D9E6002D00D096E00800104356
:1059400000D1E2E00C0017009846854E7CE6002569
:1059500080E700218EE7230050460343002E00D04D
:10596000A8E0002B00D1DEE00B00134300D16BE672
:1059700052445245804164184042241817002302C3
:1059800000D4FDE6774B66461C405DE62500504698
:105990000543002ECFD1002D4FD10C00144300D170
:1059A000A0E00C00170098464EE66646002400274B
:1059B00085E61F000800203FF8400700202B00D19B
:1059C0008EE04020C31A99400A43511E8A410021AB
:1059D000174392E6002E14D126005046064362D0AB
:1059E000DB43002B5CD187189742924164185242E6
:1059F000A418664687E650462043441EA041002472
:105A000060E7574EB4454ED0802636045B4234439F
:105A1000382B00DD7FE01F2B00DD8BE020262700E8
:105A20005046F61AB740D84007435046B040461E8D
:105A3000B0410743DC40BF18D6E70D00154300D145
:105A400002E65046801A8245BF41651A7F42ED1B2F
:105A50008446280200D48DE65046171ABA42924175
:105A60000C1B5242A41A9846EEE50D00154300D1D6
:105A70006BE750466707C00807438020E40800032F
:105A8000044207D0CD08054204D12C009846D7081F
:105A900049070F437B0FE4001C43FF00304ED3E562
:105AA0002F4EB445B4D10C0017006646CCE5002754
:105AB0000024E8E5002B39D00B00134300D144E764
:105AC000C008670707438020E40800030442E1D0D0
:105AD000CB080342DED1D70849070F431C00D9E7A2
